:020000040000fa
:080000000002040000000000f2
:020000040000fa
:10000800ea020000fc02000014030000f2020000f3
:10001800040300000c0300001c030000240300007c
:10002800240300002403000024030000282a000001
:10003800240300002403000024030000240300001c
:100048002403000024030000240300006c2a00009d
:100058006e2b00002403000024030000240300008a
:1000680024030000240300002403000024030000ec
:1000780024030000240300002403000024030000dc
:1000880024030000240300002403000024030000cc
:1000980024030000240300002403000024030000bc
:1000a80024030000240300002403000024030000ac
:1000b800240300002403000024030000240300009c
:1000c800240300002403000024030000240300008c
:1000d800240300002403000024030000240300007c
:1000e800240300002403000024030000240300006c
:1000f800240300002403000024030000240300005c
:10010800240300002403000024030000240300004b
:10011800240300002403000024030000240300003b
:1001280024030000ee2b0000240300002403000039
:10013800240300002403000024030000240300001b
:10014800240300002403000024030000240300000b
:1001580024030000240300002403000024030000fb
:1001680024030000742f0000962a0000f42e0000db
:1001780024030000240300002403000024030000db
:1001880024030000240300002403000024030000cb
:1001980024030000240300002403000024030000bb
:1001a80024030000240300002403000024030000ab
:1001b800240300002403000024030000240300009b
:1001c800240300002403000024030000240300008b
:1001d800240300002403000024030000240300007b
:1001e800240300002403000024030000240300006b
:1001f800240300002403000024030000240300005b
:10020800240300002403000024030000240300004a
:10021800240300002403000024030000240300003a
:10022800240300002403000024030000240300002a
:10023800240300002403000024030000240300001a
:10024800240300002403000024030000240300000a
:1002580024030000240300002403000024030000fa
:1002680024030000240300002403000024030000ea
:0c02780024030000240300002403000005
:020000040000fa
:10040000af3f21000eff27000e0188000000000012
:10041000000020000000e000020032000001200087
:10042000200288000c000700203423000100200077
:100430000f000700000020000000e0000200320072
:100440000000020000000000182b02000000000065
:100450000040da000000fe00800920000000e000fb
:1004600002003200002020009001880000000600f9
:10047000a1028800800078000000eb001a0037001d
:10048000e280400054a0b4009101ba00e280400034
:1004900054a0b4009102ba00e280400054a0b4001d
:1004a0000002eb00472bde00f507b200a601880032
:1004b000602ce10008003a000049eb000201e8006e
:1004c000020039003420ec0002f0a0008301e900b2
:1004d000f9ff3e00040037006128e100010032000e
:1004e0000082eb00040007001101ba000200e000e6
:1004f000e3ff3a000000060004d0a300e20f490029
:100500001c003900810278003549ba000201e80078
:10051000020039003420ec0002f0a0008301e90061
:100520000f0032002549ba000201e800020039003c
:100530003420ec0002f0a0008301e9000800320042
:100540000400e0000600320015c9ba000201e8000c
:10055000020039003420ec0002f0a0008301e90021
:100560008180e80054a0b4000300e000e2ff3a00fc
:10057000000006009102ba00055978008301e900e5
:10058000f7ff3200c82ade00055978008301e90030
:10059000f3ff32000400e000f1ff320011d9ba008d
:1005a000eeff37005e34040000000000ca2b040098
:1005b00000000000e82b040000000000502f0400a1
:1005c000000000006e2f0400000000005e0a04001e
:1005d000000000003600f800c028a9000000eb0071
:1005e000a31907003600f800a5190700c048a900a4
:1005f000100020009e1907003600f800c068a9000e
:10060000200020009a1907003600f800c088a900d1
:1006100030002000961907003600f800c0a8a90095
:1006200040002000921907003600f800c608a90013
:10063000700020008e1907003600f800c488a90059
:10064000a00020008a1907000040da000000fe0028
:1006500003f0a200889fbe008a9fbe008c1f780016
:10066000c4000700cb0033006450e1004f003200ab
:100670006420e1005200320003826c0007003b005e
:100680000905d0000306d000820f54000c065d005f
:100690000200390002003200890178000306780068
:1006a0008582550004003d000003fd008103fd002c
:1006b0008502ea008b854200840f720002003b0035
:1006c00060001000e08018006011b8000005eb0029
:1006d0007a28e1000a00390006007800c75ddd00d5
:1006e000f707b200878075002d0037008281710006
:1006f0000a017800610560008180d1000080d3008c
:100700008502e900f9ff3b000604400087844800a9
:1007100002003b0060041400e0841c000988a30070
:10072000070032008a8171008281710061016400da
:100730008904d1000884d3008b05e8001700370036
:100740000978a30013003a000b00e0001300340006
:100750008b05e9000804440089844c000a447400b5
:100760000978a3000d003a000b00e00007003400f8
:100770008b05e9000804440089844c0001003a001c
:100780000b0020000978a300f7ff32000001eb0006
:1007900002003700828171000a0178004f000700d3
:1007a0000cf0a70001f0a000830037006420e100f6
:1007b00002003a00838f6c00830033000801be0002
:1007c0000200be007c003700889fbe008a9fbe00ea
:1007d0008c1f7800670007006e00330003866c00f2
:1007e0006450e1002e0032006420e100330032004a
:1007f0006150e1002f0032006120e1003100320041
:1008000085855500eb07b000090020000804200092
:10081000050037000804440089844c000a003100b8
:100820000603430087834b000001530081815b0076
:10083000f8ff33000203be000800a00008044400d3
:1008400089844c00f6ff3900c639dd00830173004e
:1008500001003200130020008904d1000884d30075
:100860000998a300050032000800a7000300a000bb
:100870008904d1000884d3008b05e8008904d100e5
:100880000884d3000001eb000281d20013000700ae
:1008900001f0a1000cf0a70001f0a0004600370015
:1008a0006420e100480032000801be000200be00e2
:1008b000f7ff37006120e100430032006000b8001c
:1008c000f3ff37000000200001f82700f0ff370099
:1008d0004f89de008201780010023700810020007d
:1008e000618055000b003d000b00200061fe2f00d1
:1008f0000100e1001d00340082817100610164008b
:100900008904d1000884d3000000e800faff3a000f
:1009100071002000610064000300700002006000ac
:100920000900320061044400e0844c000988a500fd
:10093000050032008b05e8006808e10002003a007b
:100940008904d1000884d300f20f20000258e1008e
:1009500005003d00c75ddd00f907b2008980750024
:1009600008007800000006000bf827008b007800d4
:10097000000005000004be00270207000003be00bf
:100980000405be000200be0023020700844f75006c
:10099000000006000200be006450e10005003600c1
:1009a0006420e100020036000968a30001003a005b
:1009b0000800be000160a0004f0678004f05be0091
:1009c0004f04be0000000600f0ff2f00f1ff2700db
:1009d000f9ff3700889fbe008a9fbe008c1f7800f9
:1009e000e4ff0700ebff330003866c006450e10076
:1009f000240032006420e100270032006150e10051
:100a0000220032006120e100210032008b8542008b
:100a1000eb07b1000134b800003ab8000804420006
:100a200089844a00013ab8000030b800888040004c
:100a300009014a00040033000000400081804800a2
:100a4000020149008b05e900c909dd00830170003e
:100a50000100320013002000c814de004814dd003d
:100a60004709de001200b200c808de0008847000ea
:100a70009aff070001f0a1000cf0a70001f0a00010
:100a8000cdff37006120e100cfff32000801be003a
:100a90000200be00f7ff37006150e100fcff3a00a2
:100aa000c9ff37000c00fa00889fbe008a9fbe0075
:100ab0008c9fbe00afff07000206be0084057800d1
:100ac0000200be00020020004801070005003a00b5
:100ad0008b02b300120020004401070001003a001d
:100ae000f8856d000c01be00c60007000800be00be
:100af0009b0032000b08a3009e003a000df0a700f7
:100b00000be0a00009f0a7000bf0a00009f0a10085
:100b10000801be00bb0007000bf0a60095003200e4
:100b200001003c000bd0a0008acf7500b20033005a
:100b30006000b8006250e10099003900a1003e0059
:100b40000b28a300a2003a000bf8a3000600320015
:100b50000b58a300a70032000801be00a90007003f
:100b60000800be00940032000800be00b00007007c
:100b70000004be00050578000bf0a7000b30a600ae
:100b80000bf0a1005b079800324f200053f32300c5
:100b90003d01070005003d000800be0012002000d6
:100ba000b20107000004be000a05e9004a079800e8
:100bb0006150b90046ff0700008fbe000c01be0067
:100bc00084ff070034010700300798000100e000af
:100bd00002003d0060001000e0801800f2ff2700d6
:100be000820f5000e08f580064003e000c00be00f1
:100bf0002901070020079800f2072000820f50000b
:100c0000e08f580005003c0012f82f00f3ff2f0082
:100c1000820f5000838f580009003d000a00e00059
:100c20000300320001003c000201ea0002057800e6
:100c30006000b800200798003a07980019003700b4
:100c40003e0090006100b90021ff0700809fbe00b8
:100c50000c00be004109dd004811de007208b10041
:100c6000e20007000005be001e01be0059ff07009c
:100c70004f01be0076fe0700809fbe000c00be0044
:100c80000a01be0072fe07001e01be0051ff0700f0
:100c90004f01be006ffe07008221270013f32300df
:100ca0004cff07000005be002e0090006100b90057
:100cb00007ff070001f0a2000c01be0065fe07005f
:100cc0000006be000800be008a0107000c01be003d
:100cd00040ff07000a01be005efe0700809fbe00c5
:100ce0004a0007002e0590000af0a7000a05ea0056
:100cf000050037000800be000801be0035ff0700f0
:100d00000004be000c00be000801be000a00a700df
:100d100030ff07000006be000a05d100f5ff3a00cb
:100d20005e01900002e0a600030037000001be0053
:100d300036000700a4fe07000004be004f00be00fe
:100d4000480007000801be0022ff07003e01900096
:100d500046010700de0590000bf0a70001f0a2009d
:100d60004f06be004f05be004f04be000080fa00d3
:100d70000000060025000700f9ff370027000700e4
:100d80006000b8000bd0a7000bc0a0000be0a700cc
:100d90000bc0a2000bc0a70001f82700f0ff37002e
:100da0000df8a300020032001e0007001900070022
:100db0000bf8a300eaff32000b30a70001f0a200fd
:100dc000e7ff37000df8a300f9ff3a00f7ff3700ff
:100dd0000801be000b000700e6ff320001003c00e6
:100de0000df0a2006000b8000df0a7000900070098
:100df000dbff37000b000700f1ff2700f0ff2f009b
:100e0000d7ff3700010007009f00370001f82300db
:100e10000000050001f82700000005002002200066
:100e20000100370010022000208288000000060028
:100e30000003be00f80007006220e100020032005b
:100e40000600be0005000500e507b100f107b2008d
:100e500004f023008480700007f0a70001f0a000d8
:100e600024000500889fbe008a9fbe008c9fbe00a4
:100e70000004be00e80007000800be006420e10096
:100e800048003e005500320072212700132b240039
:100e90007f00070047003c000800be00c2ec2800ad
:100ea000e32c2c0078000700470035000800be0046
:100eb00001f0a100020020000338230072000700a7
:100ec000430035000800be00b2a32a0083fb2300c4
:100ed000c0fe07000200200003f0230001f0a7007d
:100ee00003f0a000dbfd07006b0007000005be005b
:100ef00077fe070001f0a2000006be0002002800f5
:100f000013f32300b3fe07000801be00d1fd070064
:100f1000809fbe000c00be0032082800e3952b0025
:100f2000acfe07004f01be00cafd07000006be0070
:100f30000001be00a7fe0700809fbe0042412500c1
:100f400083b82300a3fe07000200200003e823006b
:100f5000c0fd07000c01be009efe07000006be009b
:100f60004f00be00f2f92b00c3d4230099fe070006
:100f70000200200003f02300b6fd07000c01be00b4
:100f8000b3fd07000001be000c00be000efe07000e
:100f90000200200003f02300aefd070061014500c0
:100fa000b20007004f06be004f05be004f04be0052
:100fb0000000060001f827000000200022022000a7
:100fc00022828800f7ff37006000b800fbff37007f
:100fd00001f8230000002000f2ff370009f8a30009
:100fe000f0ff32006000b800eeff3700889fbe00bf
:100ff0008a9fbe000003be008700070085057800b9
:1010000082815200020020006220e10004003a00c8
:10101000f307b100040035007718e1000400350043
:101020000600be00140037006000b8000f00370053
:10103000f50f2000faff2f008502d1000a85d300aa
:101040008301e900fcff3b0081846200000465002d
:10105000890f7400f2ff32008582ea000a85ea00f7
:1010600081846200000465001cfe070007f0a700f1
:1010700001f0a0000081eb000200e0004f05be007f
:101080004f04be000000060014002000f0003700ee
:10109000f4ff2f00ee0037000001be005e000700e5
:1010a0000470a70003f0a1006509b100160032002a
:1010b0000d0035006828e10006003500f0ff2f0024
:1010c000f1ff27000300e00013003b0001002800af
:1010d0000000050000004000818048008502e90012
:1010e000fcff3a0008003700f88f420002003c0085
:1010f0008000eb00000005008100d1000080d300db
:101100008502e800fcff3a000300e00002003b001b
:1011100060001000e080180000000600881f7800c2
:10112000030478000300e00007003d0060001000a9
:10113000e080180060011900e081190002003b0006
:1011400001f02d00030037000400070008f0a7009d
:1011500001f0a0004f04780000000600889fbe0048
:101160008a9fbe0000827000040271000482710038
:10117000260032000004be000200be006011b8006c
:101180006b092000950220000182cf000a0039007f
:101190000541b1000082cf00070039000541b100d0
:1011a0000982cf00040039000541b1000882cf0058
:1011b000010039000541b100054252001200320021
:1011c0000a003b0082817100610164008100d1004e
:1011d0000080d3008984d3000884d3008b05e80005
:1011e0000442e800f7ff3a00070037000804440013
:1011f00089844c0000004800818048008b05e9008c
:101200000442e900f9ff3a00b4fd07004f05be00b3
:101210004f04be0000000600c70ade00f107b2005e
:10122000f50fb20008003200e1cf420002003200a8
:101230000170a00024000500810f70000100320041
:101240000408050044000500810f700002003a0008
:10125000140005008502e9000000400081c048003c
:10126000fcff3b000170a000240005000003be004d
:10127000e9ff07006220e100020032000600be0024
:101280000000060085024100e30f20000328e10072
:1012900005003c00a3fe2f000328e10007003d00ed
:1012a0000500200001003700f50f2000200220007b
:1012b000208288006000b80008003700130020007a
:1012c0008381520005003d008100d1000080d300e1
:1012d0008301e800fcff3a0005002000c72add007a
:1012e000f107b2008580700007f0a70001f0a000b0
:1012f00000000600889fbe008a9fbe008c9fbe0033
:10130000cbfe0700850478000005be006420e100e4
:1013100049003e006220e100030032000900350070
:101320000bf8a300440032000bf8a30008003200c1
:101330001002200020828800f0ff2f00f1ff27001c
:101340003d00370001f82f00000020003a00370070
:101350003d000700befc07000006be000a00be00fc
:10136000324f200053f3230049ff070006003400ea
:101370000c00be0034000700b5fc07000006be00ec
:101380000a00be00020037008904e9000c00be001c
:101390002d0007008ffd07002b000700adfc0700a4
:1013a0000001be000c00be0007fd07000005be00e6
:1013b0000001be0087fd07000006be00a2f3230067
:1013c000430d2c00a3fc0700809fbe000c00be0054
:1013d000d2e32700d3f02b007efd07004f01be00b3
:1013e000f9fc07000006be000a01be0079fd0700f7
:1013f0000a01be0097fc07000006be006148b90064
:1014000033fd07000005be0032082800e3952b00dd
:1014100070fd07000c01be008efc07000006be0038
:101420000a00be000200280013f3230069fd070034
:101430000c01be0087fc07004f06be004f05be0032
:101440004f04be000000060003f023000200050068
:10145000889fbe008a9fbe00841f780045fd07005c
:101460004f00780011003300f0ff2f00838f6c00d5
:1014700006003b00040565000a00a70008003700cd
:1014800009f0a6001000200008003700820f540069
:10149000838f5c00030039001000200001003e0033
:1014a0000000200009f0a7000000ea004f05be0080
:1014b0004f04be000000e00000000600881f780016
:1014c00002047800080178008f040700080040003b
:1014d0004f047800000006000000fa00881f780022
:1014e00000047800ea8157003fb99700880078002f
:1014f000e0a52000070007000000e0000200350022
:1015000000044400004ceb004f0478000080fa0017
:10151000000006006200fa00889fbe008a1f780063
:1015200000057800810478000204780083007800c8
:1015300080f92f000f004000a90607009a979f002e
:10154000a9979f000000eb00b09f9f001885fb004b
:101550008a04fb000a05ea004f55de005002200015
:10156000808f54000d003200e10f55000b003a004f
:101570000a017800880078002f9097009f919700cb
:1015800003000100a0979f000000e0008e003200e1
:101590003f9897000000e800b09f9f000a044400b5
:1015a00050022000808f5400040032000900e00047
:1015b000e6ff3a003f989700840037000000eb00f8
:1015c000909f9f00809f9f00f0979f00e0979f0053
:1015d000d0979f00c0979f0007003700013f210070
:1015e0000100500000004000413e2100808040008a
:1015f0005f98970011007000d09f9f0088047800ca
:1016000009047800384578008a00fb00003f21007b
:10161000440407000000e000f0ff3a00a1c2b3005c
:10162000814f55000e003a00cf8897000180e900f5
:10163000c08f9f0010007800c09f9f000000e00056
:1016400005003d000000ea00c09f9f005f989700e2
:101650000020a000d09f9f000904e8000f00370081
:10166000c09f9f000000eb0005003700f2ff27003d
:10167000820f500002003200ea00b90000804000f2
:101680000904780088047800b900fb000103b10068
:10169000e98f5000f5ff3600c09f9f00e0c2b30005
:1016a000984f1000020032000080eb001900370054
:1016b000a0c2b300d84f100007003a00cf889700af
:1016c0000180e900c08f9f0010007800a09f9f005c
:1016d0000804e800100037000000eb00a09f9f0006
:1016e0008800780005003700f3ff2700830f5000c3
:1016f00002003200ea00b900000041000104780055
:10170000880078003101fb000203b100e90f5100ad
:10171000f5ff3600a09f9f00984478008900fb00e9
:10172000c03d2100ff0307000000e000020032007e
:101730000804e800010037008044eb00c97f9f00e7
:1017400080c6b30080cf540004003a0098cf140044
:101750000a003a006640500006003700c0c6b300d9
:1017600080cf540005003a0098cf140003003a00df
:1017700065404000c07f9f000804e8001801fb009e
:10178000e3fb2f008f81410081f92f008f80400003
:10179000a0f92f000f004000100007000000e0003b
:1017a00009003a00e1fb2f008f804000a0f92f00d4
:1017b0000f0040004e0507000000e0000200350069
:1017c0000804e80061ff37000080eb004f05780057
:1017d0004f04be000080fa0000000600889fbe0093
:1017e0008a1f78000004780082447800030578009e
:1017f00070c6b30080cf540021003c0000c0e90057
:1018000080cf5400d4003d007240500080cf54007f
:101810003e0132000d003c006c40500080cf54006f
:1018200051013c0000c0e90080cf5400ca003d00d7
:1018300050c2b30080cf5400480132007c404000c9
:1018400080cf540048013a00c300370010c6b300ef
:1018500080cf5400c000320004003c0069405000ba
:1018600080cf540040013a006b00370030c6b3000f
:1018700080cf5400180032000040e8000900370013
:1018800000c7b30080cf54001201320008003c00b2
:1018900000c0e90080cf5400db0032005e003c0055
:1018a0006540500080cf54002f013a0010003700ef
:1018b00050c7b30080cf540057003200634040004f
:1018c00080cf5400540032006540500080cf540057
:1018d00025013a000d0137001181e90082087800e6
:1018e0007800900000054500124d78002401370073
:1018f00028609000c2c6b300824f500007003a0033
:101900001101780064005100800878001000be00ca
:101910004f89de00820178001100370012c7b30042
:10192000824f500003003200a2c6b300824f500025
:1019300006003a0011017800680051008008780024
:101940005001be004000be00050037001180e900d4
:101950008008780010007800cf80de006109b900af
:10196000009cbe000294be002862900085c6b300b1
:10197000854f52000d00320025c6b300854f52003e
:1019800004003a000000fb00cf80de006109b900ce
:101990000800370045c7b300854f520003003200ee
:1019a000e6c24200854f520004003a00cf80de00bc
:1019b0006109b900009cbe000294be003802be005e
:1019c0002803be0078009000e00f5200e08f5a001c
:1019d000e00f5b00e08f5b0003003d0080004500ee
:1019e000d2c2b3000a003700881090000118a3008b
:1019f0000300320080004500b2c2b300040037008b
:101a00000108a3004f0032008000450002c2b3006d
:101a1000824878004900370028609000c2c6b300b1
:101a2000824f500006003a00110178006400510016
:101a3000800878001000be006011b8001100370067
:101a400012c7b300824f500003003200a2c6b30099
:101a5000824f500006003a001101780068005100e2
:101a6000800878005001be004000be00050037002d
:101a70001180e90080087800100078008000eb00f9
:101a80006011b800009cbe000294be002862900065
:101a900085c6b300854f52000d00320025c6b30045
:101aa000854f520004003a000080fb008000eb00ec
:101ab0006011b8000800370045c7b300854f5200d9
:101ac00003003200e6c24200854f520004003a0093
:101ad0008000eb006011b800009cbe000294be00c4
:101ae000081090000038a300160032003800be0035
:101af0002801be00e00f5000e08f5800e00f5900b1
:101b0000e08f59000f00320080c7b30080cf54002f
:101b10000300320080c5b30080cf540009003a00b2
:101b2000780090008000450002c3b300824878002e
:101b30000000e80080004500894878000000e800c7
:101b40007004980078009000000545006a04980031
:101b5000894078006a00370028619000c0c4b30053
:101b6000804f510006003a001101780068005100d2
:101b7000800878005001be004000be00050037001c
:101b80001101780064005100800878001000be0048
:101b900019060700009cbe000294be00b800900029
:101ba000780090000100e00003003d008000450047
:101bb000d2c2b3000a003700881090000118a300b9
:101bc0000300320080004500b2c2b30004003700b9
:101bd0000108a300050032008000450002c2b300e6
:101be000824878000000e8007004980078009000b7
:101bf000000545006a0498008900fb000800780091
:101c0000650007006000370028619000c3c6b3007c
:101c10001180e900834f5100220032000a003c008d
:101c2000e4c15100834f51002500320083c1e80018
:101c3000834f510013003200e8c15100834f51001f
:101c40001e003a000a00370043c7b300834f51001b
:101c50001b003200e6c14100834f510018003200e2
:101c6000e9c15100834f510014003a0005003700cc
:101c70008008780010007800485c900008487800e0
:101c8000410037008008780010007800680a900052
:101c9000cfa2de00612bb9000498be000690be0002
:101ca000390037008008780010007800680990003b
:101cb000cf91de000288be00330037001180e900ba
:101cc0008008780010007800680c90000808780000
:101cd0002d0037001180e90080087800100078009e
:101ce000cf80de006109b900009cbe000294be00f6
:101cf00078009000000545006a04980081c7b30091
:101d000008007800c30207001f0037001180e900b7
:101d100080087800100578006a049800d80c9000bc
:101d20000900e00004003d000a0078008902070075
:101d30008004780007003700090178008000eb007c
:101d40000a007800660207000000e000010032008f
:101d50008a045000190c98000b003700780090009e
:101d6000000545000500370078009000000545009b
:101d70000904e00001003a0059c2b300094d78009f
:101d80000000e800700498000000eb004f057800a8
:101d90004f04be00000006002f04b000889fbe0064
:101da0008a9fbe008c9fbe008e1f780000077800bf
:101db00081f79f003e04be002e05be005e08900025
:101dc0000000e00002003d0060002000500f98007d
:101dd0008e00780020fb2f000f00400063020700f8
:101de000e20f50000a003a0030002000100f980067
:101df000b1c9b3000ff0970081404000603421006a
:101e0000e1cf50000d003e00203421000b003700d0
:101e10000000e0000f00340030002000100f980098
:101e2000b1c9b3000ff1970081404100e0342100b7
:101e3000e1cf500001003e00a0342100ee009000f0
:101e4000b0487800b0687800104078009040980062
:101e5000f30037000000e00005003a0022fb2f00ed
:101e60000f014100001978008001eb00e700370006
:101e70006022b8006033b8000800be000a01be004e
:101e8000a50407000000e00001003d000bf0a200e7
:101e9000705927009f9897000088b900026a2800af
:101ea0001300200000050700640650009c9f9f005f
:101eb00013003b0063061600c0ff2f0000066600fb
:101ec0008c01ea00939f9f002d3521000800be0081
:101ed0000a01be00070037000c08a300030032000f
:101ee0003d02be002d03be00910507000c86d10007
:101ef000e88646000c00e000f7ff3c0018003700c1
:101f00000c00e00018003200c0ff2f000006660041
:101f10009c9f9f002d3521006000b800020020002a
:101f200003ff2300070037000c08a3000300320062
:101f30003d02be002d03be007d0507000c86d100ca
:101f4000e88646000c00e000f7ff3c000002be00ff
:101f50000203be000800be000a01be0078040700ac
:101f60000004be000205be00de08900060c6b3009b
:101f70000ff29700804f52000400320060002000f2
:101f800062c4b300824f520002003a009f9a970049
:101f90006a80420081004000f1b79f000103780091
:101fa000f30f53000200340037012000f7b79f0001
:101fb00000c3b300c0779f0056fb2f000f03430000
:101fc0000e007800a0b79f00060778003d0037009c
:101fd0000800be000a01be00260507000006be007c
:101fe0007fb1970068015100f2b79f004240a900fd
:101ff0000c0034004b0507000002be000203be00c7
:102000000800be000a01be00be0507006022b8003d
:1020100046782d0077192400450507000004be000e
:102020000205be00e80047008e0020000802be0046
:102030000a03be00b4b79f00c5b79f00d6b79f0084
:10204000e7b79f000c01be00010478000c003700c8
:10205000a400200005002000c0fd2f000f0040005c
:102060008a0107006fa89700ffa897000fb197009b
:102070009fb1970005c3b300056441000001be0095
:10208000e00f5100e08f5900030034000e07e90013
:10209000e10f4700eeff3a00880078003fb4970058
:1020a000cfb497005fb59700efb5970002003700f7
:1020b00000c3b300806078000e07e900fcff3b001e
:1020c000688740007fb397000600e00007003400f7
:1020d0006022b8006033b8000800be000a01be00ec
:1020e000120407000000e000b9ff3c000e03780076
:1020f0002fb7970051fb2f008f8040000103530042
:102100009f9b970067804300909f9f0002003700cd
:102110000603e9000000e900010178008200780070
:1021200003c3b300b1cf1100f9ff3200909f9f00ad
:10213000de09900061c6b3000ff29700814f520094
:102140000300320061c4b300814f520002003a0024
:102150000000e8000a0037001000200051c6b3005c
:102160008ff2970081cf52000500320005407800c1
:1021700050c4b2000080fb000000e9004f00de0008
:1021800083014000868f51000100340086017800f1
:102190000300e0001d00350000c3b300868f51002e
:1021a00006003d00030241006940400041c3b30006
:1021b00094cf100001003c00694050008300e9000a
:1021c0008100410001003700840178000302e9002a
:1021d00001037800a142780080cf5200faff32005c
:1021e00091c3b300814f500001003a00054be80055
:1021f0000400e00005003d000201e9008301e80061
:102200001f9b97000603e800969f9f008ff397009f
:102210008700fb001f9a97000e0078000600070059
:102220004f0778004f06be004f05be004f04be00aa
:102230002f04b10000000600f0874700889fbe0011
:102240008a9fbe008c9fbe008e1f7800000478001d
:10225000814478000205be00040678000b00e0000f
:1022600002003c001b0020008a3f210060c6b30032
:1022700080cf54000e00320060c4b30080cf540001
:102280000b00320070c6b30080cf54000300320050
:1022900070c4b30080cf540085003a00e40f4600bc
:1022a0008300350058089000800f560080003d00e4
:1022b0000c06e80060c6b30080cf54001000320066
:1022c00060c4b30080cf54000d00320008109000ad
:1022d0000038a30004003a0058089000808f550091
:1022e00001003d005b0c9800580890000c00500065
:1022f000500c980002003b000000eb00500c9800ce
:1023000098089000680090000c00e00028003c0055
:102310000100400002c3b300024878008100e800d9
:10232000110c9800580890000000e00003003c00e9
:10233000081090000038a3000600320068009000ea
:1023400001004000e2c2b300024878008100e800ca
:10235000110c9800580890008c00ea00810f500082
:1023600001003d000006ea008c00ea00210c980004
:10237000000646005c0c98008b0f560001003400ec
:102380000b0678003c0c9800e800900018089000bc
:10239000008040000c0178008a007800da00070015
:1023a000580890000c0650004c0c98009400370020
:1023b0008c8f550019003d00010040000b01780092
:1023c0008a007800d00007001808900000804500bf
:1023d000100c98008b0556002b0c9800d808900024
:1023e0000100e00003003c00881090000138a300c9
:1023f00007003200e800900000804000e1c2b30016
:1024000001487800380890000000e800300c98007f
:1024100058089000400c98007900370001004000f7
:102420000c0178008a007800b700070018089000b7
:1024300000004600100c98008c855500d8089000cc
:102440000100e00003003c00881090000138a30068
:1024500006003200e800900080804000e2c2b30035
:10246000824878000000e800100c9800580890009e
:10247000808f55000100340080057800e80090004e
:1024800018089000008040008c0045000b01780087
:102490009d000700180890000b004000100c9800e9
:1024a000580890008b0550002b0c98005400370002
:1024b00018089000e8009000808040009a4878005a
:1024c0000000e800100c9800d80890000100e0001f
:1024d00003003c00881090000138a3000600320081
:1024e000e800900080804000e2c2b300824878009b
:1024f0000000e800100c9800580890000000e00070
:10250000100034008b05e900808f55000100340075
:1025100080057800e80090001808900000804000d6
:102520008a00e8000b017800770007001808900087
:102530000b004000100c9800580890008b055000cc
:102540002b0c9800e80090001808900000804000d4
:10255000095878000007e8000c00e000040035008e
:10256000b1c2b300014878008e047800040037003f
:10257000d1c2b300014878008e0478000c06ea004e
:102580007d8557008006eb0009003700a20020007f
:102590008c00780072805700310007007fb09700f0
:1025a0008fb89700016d7800000678008d06e8006e
:1025b0000c00e000f5ff3c000d00e00009003a00cf
:1025c0008e04780000c3b300805c780005003700fb
:1025d0008d06e900fc8057000d80400001c3b30068
:1025e00090dc40000d00e000f9ff3c00e8009000a6
:1025f000180890000080400080845400390c980036
:102600000810900074006000f00f50000e003a00b7
:10261000980890007800900000804000a808900082
:1026200001004000b808900001004000c808900078
:1026300001004000f8089000810f500002003d00aa
:1026400000805000000c98004f0778004f06be0035
:102650004f05be004f04be000f01b1000000060090
:102660008002780001037800110009000203d800fd
:1026700080017800830a78008299b90082005300b3
:10268000910298000500780000000600881f78007d
:102690008a9fbe008c9fbe00000478000205be0029
:1026a0000406be000401be000a00be00fe020700d0
:1026b000008cbe000c01be00270407000005550079
:1026c00081855d002a0498003b049800080078008a
:1026d0004f06be004f05be004f0478000000060004
:1026e00003003700b0cf1000050032000201e900fe
:1026f000800178000200e000faff3a0000000500c7
:102700000300780000000600800178000200370016
:10271000b15978000201e9000200e000fcff3a0034
:1027200000000600020037000304e000060032004b
:102730000001780002007800b041780081cf51009c
:10274000f9ff3a00010037000001eb0002007800b9
:102750000000060080007800010178003104e000ec
:10276000fdff3a000000510000000600889fbe00f7
:1027700000047800e68440001900d0004500de0027
:10278000f27f2000820f500010003a00000ceb0096
:10279000990478006f816400200020001b003a003b
:1027a000210190000200e00018003a0011019000a1
:1027b0000200e00015003a00100020001100e000c7
:1027c0001200320020002000100037000000e0005e
:1027d00004003a0001007800030207000000e00056
:1027e00008003c00f20028001901610001fe2300ee
:1027f000810c710021c02f00010c40000080eb0013
:1028000002003700000ceb000000eb004f04be009c
:1028100000000600fc874700889fbe008a9fbe001c
:102820008c9fbe008e1f78000006780080c5b30024
:1028300080cf50000a0032007740400080cf500027
:102840000a0032006940400080cf50000b00320087
:10285000b03a210080bf9f00ae0020000a00370080
:10286000a239210082bf9f0006003700b33a210041
:1028700083bf9f008e00200003003700b43a210080
:1028800084bf9f000e0120003c02be002c03be004e
:102890000605be000404be0040c6b30080cf500051
:1028a000030032006540400080cf50000b003a002a
:1028b000e00f5200e08f5a00e00f5b00e08f5b00fa
:1028c00006003d006000b8006011b800040450002c
:1028d000858458000605590087855900e80f570080
:1028e0000400320040002000f00f57003a003a0088
:1028f0000100370030002000e00f5400e08f5c0042
:10290000e00f5d00e08f5d0004003a00dc089000fd
:102910008d0120000100e000070032008e00e90078
:10292000888060008fba97008180420091407800d3
:10293000f1ef9f007d012000800078008100e90018
:10294000050033008b05d1000a85d3008984d300ac
:102950000884d300f9ff3700089ebe000a96be0027
:10296000130037008d06e9008e00e90084806000c6
:102970000fb99700810041001141780083fd2f00bd
:102980008d81410082f77900800178008301e900a0
:10299000050033008783d1000683d3008582d300ee
:1029a0000482d300f9ff3700049ebe000696be00e5
:1029b0003c02be002c03be00e00f5200e08f5a0024
:1029c000e00f5b00e08f5b00910034000d00e00041
:1029d000e4ff3c008e0037002c60900081c6b300fd
:1029e000814f50000b00320006003c000004e00064
:1029f00008003200e6c05000814f500052003a00fb
:102a000004003700c1c6b300814f50004e003a00a9
:102a1000230037000800e00004003a005c08900042
:102a20008d0120000000e0000700320011000900c5
:102a30000e84d8000fba97000100420010407800c1
:102a4000f0ef9f007d012000110009000e84d800e6
:102a50000b003700110009000e04d8008d06e900b4
:102a60008e81b900020454008fb89700088440009a
:102a70009841780082fd2f000d0141008377790095
:102a8000000478000800e000020032000d00e000c1
:102a9000f0ff3c00cfc4de00614db90027003700d5
:102aa000e00f5400e08f5c0004003a005c089000e6
:102ab0008d0120000000e000080032006171b900c3
:102ac0000800be00210307000fba970080004200f3
:102ad00091407800f1ef9f007d0120006171b90005
:102ae0000800be00090307000c0037006171b9003f
:102af0000800be00ec0107008d06e90080f1b90076
:102b0000020454008fba970008844200984178006c
:102b100082fd2f000d014100837779000004be0083
:102b2000e00f5000e08f5800020032000d00e0007e
:102b3000eeff3c004fcdde008a057800089ebe0007
:102b40000a96be0032003700e00f5400e08f5c00b0
:102b5000e00f5d00e08f5d0004003a005c0890002b
:102b60008d0120000000e0000a0032006172b9000f
:102b7000612bb9000800be000a01be009c030700db
:102b80000fba97008000420091407800f1ef9f005b
:102b90007d0120006172b900612bb9000800be0000
:102ba0000a01be008b0307000e0037006172b900f6
:102bb000612bb9000800be000a01be0090030700a7
:102bc0008d06e90080f2b900040454008fba970022
:102bd000088442009842780084fd2f000d024200d4
:102be00085777a00009ebe000296be003c04be00bf
:102bf0002c05be00e00f5400e08f5c00e00f5d008c
:102c0000e08f5d00020034000d00e000e7ff3c00b3
:102c1000e80f570010003a000c1090000038a30095
:102c20000d003200f78f560006003e0080fd2f0099
:102c30000d004000ef40780000c3b30080cf50008b
:102c40000500320002c3b30071fd2f008d804000eb
:102c50008d06e90082f7780078811600120e980040
:102c60006c00900083fd2f008f8141008d8041001a
:102c7000a5fe07001c089000dc089000810f5000a2
:102c800006003d0000805000000e98000c109000df
:102c90000040a100001698000f0037000100e0007e
:102ca0000d003d008c109000f4806000f08f50000b
:102cb00009003a007c099000fc009000810051005e
:102cc0000c09900082805000008050004240a90012
:102cd00001003400000e98004f0778004f06be0038
:102ce0004f05be004f04be00cf01b100000006003a
:102cf0000400fa00889fbe008a9fbe008c1f7800e7
:102d00000004780001067800f80d9000780090002b
:102d100080855500080890008085550018089000af
:102d2000808555002808900080855500380890005f
:102d300080855500480890008085550000022200db
:102d400090bf9f0000032300a0bf9f0008109000c9
:102d50000028a30015003a000b00e0001300340027
:102d60000b0578008a047800e20f55000100360058
:102d700029002000c801900009017800ee8057006a
:102d80005800900003000100500498000000e0008b
:102d90008c0032006808900009004000600c980028
:102da000090555004240a900eeff3c007801900063
:102db0000200e0000c003400c80190008c00780094
:102dc0005800900003000100500498008080eb0040
:102dd0000000e0007c003200e808900078009000dd
:102de00000804000600c9800880c90000900e00012
:102df0001100340009057800e28f5400010036000c
:102e00002a002000c80190000a017800ec805700d9
:102e10005800900003000100500498000000e000fa
:102e200068003200680890000a004000600c9800ba
:102e30008a845400edff3700180990000200e0007a
:102e40000c003400c8019000e80090005800900089
:102e500003000100500498008080eb000000e000b7
:102e600059003200e80890001808900000804000e7
:102e7000600c9800a80c90000900e00011003400dc
:102e800009057800e28f5400010036002a00200076
:102e9000c80190000a017800ec80570058009000ab
:102ea00003000100500498000000e00045003200db
:102eb000680890000a004000600c98008a84540062
:102ec000edff3700380990000200e0000e003400ea
:102ed000e80090001808900080804000c801900031
:102ee0005800900003000100500498008080eb001f
:102ef0000000e00034003200e8089000380890003c
:102f000000804000600c9800c80c90000900e000b0
:102f10001100340009057800e28f540001003600ea
:102f20002a002000c80190000a017800ec805700b8
:102f30005800900003000100500498000000e000d9
:102f400020003200680890000a004000600c9800e1
:102f50008a845400edff3700081090008000eb00d9
:102f60000028a300180032000b00e0001600340017
:102f70008b04780009057800e28f540001003600c8
:102f80002a002000c80190000a017800ee80570056
:102f90005800900003000100500498000000e00079
:102fa00008003200680890000a004000600c980099
:102fb0008a8454004240a900eeff3c008000eb00f0
:102fc000010037008080eb00010078004f06780098
:102fd0004f05be004f04be000080fa00000006004e
:102fe0000108780000000600e600400011017800aa
:102ff00005002800850261006f01610082087800e9
:10300000020032001200200011003700a0019000e1
:10301000120020000300e0000d003a009001900033
:103020000300e0000a003a001000e00008003a0047
:10303000360037006403400096087800800178006d
:10304000530b780090097800040878007001510053
:10305000110278000400e000f6ff32001300370090
:1030600064024000140378004f33de008381410086
:103070008308730080017800d3037800cf3bde0023
:103080001403780006034300068a730013027800d5
:1030900004024200100378004f33de0086097200fc
:1030a00090017800038841000201e9009101780055
:1030b000ef8f5100eaff36001000370080017800e2
:1030c000530378004f33dd001002d1000408730071
:1030d0006402400094037800cf3bdd001303d1006d
:1030e00086897300110378004f33dd009401d1000d
:1030f000030a73009108d1000201e80091017800f1
:10310000ff8f5100edff3e00ef8861009188720053
:1031100002007800000006008f1fd1001303070093
:103120008f87e9000000e00000000600809feb00b0
:103130000e0307008f87e9000000e0000000060092
:103140002800fa00889fbe008a9fbe008c9fbe00a8
:1031500003866b008f0007006400e100440032002a
:103160006408e1004a0032006100e10046003200dc
:103170006108e10049003200ec0647006000b80039
:103180003d02be003d03be00f48657006011b8004a
:103190003d04be003d05be007d0320000b0037004e
:1031a0000000a0008d06e900130032000402420076
:1031b00085824a0006034b0087834b0000004000d5
:1031c00081804800020149008381490008025200c1
:1031d00089825a000a035b008b835b00f0ff3b008f
:1031e0000802420089824a000a034b008b834b008d
:1031f0008d06e900edff3a0084827200868272003b
:10320000f707b2008782720001003200150020002b
:103210001e0490003e0b900006035400e63fb000f1
:103220000368a300070032000000a7000500a0000b
:103230008301d1000281d3008180d3000080d300bc
:103240000603e8008301d1000281d3008180d3000e
:103250000080d3000002eb000482d20021000700ae
:1032600003f0a1000cf0a70003f0a0005d00370000
:10327000640247006408e100570032003400be00d9
:103280003401be00f6ff37006108e1005200320051
:103290006011b8006000b800f1ff370003ff27009d
:1032a00002002000fbff3700839f68000100e00060
:1032b00002003d0060001000e08018000300e00004
:1032c00002003d0060011100e08119000f010700bc
:1032d0004f00e00002003b0060001000e08018009a
:1032e00000000600180020005700200008045300ca
:1032f0000d003d000600200097fc2f000740e10074
:103300001e00340084827200610260008301d100db
:103310000281d3008180d3000080d3000804e8003c
:10332000f8ff3a00470020006104600005047400c3
:10333000040464000d00320061004000e080480099
:1033400060014900e081490003b8a5000700320090
:103350000603e8006538e10004003a008301d1006b
:103360000281d3008180d3000080d300f87f200049
:103370000830e10003003500080378006000b80061
:103380006011b8004433dd00f300b2008301730024
:1033900000000600680447000294be000094be00ce
:1033a000fc0447008694be008494be0009007800a7
:1033b000b702070008007800b502070099007800fe
:1033c000814f70000b003b000800be009002070018
:1033d0004f00b10003003700f3ff2700f2ff2f007a
:1033e0006110b9004f06be004f05be004f04be007d
:1033f0000080fa00000006008103780086f70700cd
:103400000001be006000b8000478a30013003a0079
:103410006220e10015003e000d0039008301d1005b
:103420000281d3008180d3008301d1000281d300c7
:103430008180d3008301d1000281d3008180d30039
:103440000538b000c42add00f300b20083817200a9
:1034500007f0a70003f0a00000000600f3ff27001c
:10346000f2ff2f006110b900fbff370003ff2700b8
:10347000f7ff37001400fa00889fbe008a9fbe0045
:103480008c9fbe000004be000205be00680047001d
:103490000a90be000890be007d0207000070a700e1
:1034a0000bf0a100304320009e0290008082520069
:1034b000b0fe2f000028e10011003d00b0fc2f00fd
:1034c0000028e100150034001e0990008e089000cd
:1034d0007e0090000501b0000201d1008180d30080
:1034e0000080d3008502e800fbff3a000b00e000fb
:1034f000bcff3b0060001000e0801800b9ff3700ff
:10350000f0ff2f00f1ff27000b00e000b5ff3b00ac
:103510000100280000002000b2ff37006000b80062
:10352000b0ff37004f89de00820178007f0237004c
:103530002800fa00889fbe008a9fbe008c9fbe00b4
:1035400003866b0093ff07000028a30064003a0085
:103550000128a30067003a000008a30062003a00b7
:103560000108a30065003a001e009000be0890000c
:1035700081064000ed3fb100f4805700ee0190005d
:10358000111ab8008e099000311bb8009e099000f6
:10359000311cb800511db800f485570046000700e3
:1035a000fe0190003a0007008b85e8003e0007000e
:1035b0008e09900040000700ee01900034000700e3
:1035c0008b85e800380007008e0990004000070056
:1035d0009e0990001b18b800890440000a85480025
:1035e000fe019000340007008b85e80038000700da
:1035f000ee019000300007008e0990001b18b80003
:10360000890440000a8548000a98a30008003a008f
:103610000402420085824a0006034b0087834b0068
:1036200008044c0089844c000a054d008d06e90011
:1036300084827200850273004c3add0085027200bc
:103640000100320015002000443ade001400b200f0
:103650004538de00cb45dd000b007000c540de00c4
:10366000cb4ddd008b8070004549de00cb55dd0081
:103670000b017100c551de000d03780019ff070032
:1036800003f0a1000cf0a70003f0a00055ff3700e5
:103690001b18b8008502400006834800e0834b00f9
:1036a00060044c00070037001b18b80006034000f8
:1036b00087834800faff37001b18b80087034000d3
:1036c00008844800e0844c0060054d0000000600be
:1036d0001b18b8000804400089844800faff37002e
:1036e0000108a3003cff3a005800be005801be008c
:1036f000e3ff37000008a30037ff3a000904780011
:10370000f9ff370007f0a2001b0137006022b80064
:10371000060220000000d0008180d2000482d20086
:103720008582d2000000a0000202520083825a006b
:10373000030031000202420083824a000000a1001f
:103740000603e900f3ff3a0000000600efff070060
:103750000400be0000000600020ab900001bb90008
:103760000200b80081004200810043000000060012
:10377000889fbe008a9fbe0030044200b0844a0089
:1037800030054b0090854b006000b1000898be00ea
:103790000a90be000440e10005c8e10006d0e10047
:1037a00007d8e10002003100680040001008e8007e
:1037b0004f05be004f04be0000000600889fbe00fb
:1037c0008a9fbe003004be002005be0004185400cd
:1037d00005985c0006185d0007985d001100200048
:1037e0000440e10005c8e10006d0e10007d8e1008f
:1037f000010039008000eb00108810004f05be006a
:103800004f04be00000006001200fa00889fbe00b0
:103810008a9fbe008c9fbe00e0b79f00f1b79f005b
:1038200082bf9f0093bf9f000605be000404be0038
:103830000000eb00d0b79f00c0b79f00b0b79f005b
:10384000a0b79f0090b79f000006eb005fb1970004
:10385000cfb09700820141003fb097000200e00026
:1038600004003d00370007007e805700c0ff0700be
:1038700003003700330007007e805700cfff0700aa
:10388000dfb697000d00e0000c0035006fb2970026
:10389000ffb297000fbb97009fbb9700100020005e
:1038a000010020006011b8000002720081827200e5
:1038b00002037300838373001b0007000c06e800fb
:1038c00001042000810f5600e0ff3a000d00e000e7
:1038d00004003d000802be000a03be007e805700bf
:1038e000a3ff07005fa897000000e00005003a0072
:1038f0001fb29700afb297003fb39700cfb39700c6
:10390000090007006fb09700ffb097000fb997004c
:103910009fb997004f06be004f05be004f04be0082
:103920000080fa0000000600010007000000060009
:10393000a4b79f00b5b79f00c6b79f00d7b79f0039
:10394000000006004f09de0082817100b3b79f00be
:103950004f01de008180400082807000a1b79f008f
:103960008fb097004f09de00000040000200700099
:1039700090b79f007fa897004f01de008180400034
:103980008280700081b79f000d0007004f3ade0073
:103990000000400004007000f0af9f000800070026
:1039a0000402420085824a0006034b0087834b00d5
:1039b000dfff07000802be000a03be000000060089
:1039c0002fb29700bfb297004fb39700dfb39700b5
:1039d00000000600881f780018002000881f78006b
:1039e00089ff07008f87e9004f0478000000060078
:1039f000801feb0084ff07008f87e90000000600ae
:103a0000889fbe008a9fbe00e00f5000e08f5800e4
:103a1000e00f5900e08f59000c003d006044b800f1
:103a20006055b8000000540081805c0002015d0018
:103a300083815d00180020001500070008003d008c
:103a4000180007000004eb00050037000004eb003d
:103a50000f00070002003d001200070018002000c0
:103a6000dcff07000800e000060032006022b8001a
:103a70006033b8000000520081805a0002015b00f0
:103a800083815b004f05be004f04be0000000600ae
:103a9000e00f5200e08f5a00e00f5b00e08f5b0008
:103aa000000006006044b8006055b80004025400ed
:103ab00085825c0006035d0087835d0000000600d0
:103ac000889fbe008a9fbe008c1f7800e00f5000c8
:103ad000e08f5800e00f5900e08f59000d003d00c5
:103ae0006044b8006055b8000000540081805c005c
:103af00002015d0083815d001c0020000820e100c0
:103b000009a8e1000ab0e1000bb8e1000d003d009a
:103b1000080037000006eb00e00f5200e08f5a006b
:103b2000e00f5b00e08f5b0006003d006044b800e2
:103b30006055b8000402540085825c0006035d00f5
:103b400087835d00aaff07000c00e000060032003a
:103b50006022b8006033b8000000520081805a0033
:103b600002015b0083815b004f0678004f05be00b9
:103b70004f04be00000006002800fa00889fbe0027
:103b80008a9fbe008c9fbe0007067800878669006a
:103b90000c003b00030478008704780008f0a100c3
:103ba00009f0a100840f5000858f5800860f59003e
:103bb000890f5c00030033000cf0a20001003a0002
:103bc0000cf0a100f3fd07006400e1005f0032008b
:103bd000780147006408e100610032006c01470091
:103be000748557003200be001201be003a04be00c8
:103bf0001a05be001e039000be0a90008503530004
:103c000006003d000004fd008104fd000205fd00ea
:103c10008305fd008703ea00050378000df8a30083
:103c20000400320060041400e0841c0060051d00e4
:103c3000e0851d006022b8007d0320000d38e10002
:103c40008006eb000b0039004433dd00f300b200c6
:103c50008301730039003700848272000d027800fe
:103c6000e10664008b85d1000a85d3008984d300e6
:103c70000884d3008703e900f7ff3b0008004000f9
:103c8000898048000a0149008b81490004003b00fb
:103c900060001000e080180060011900e081190048
:103ca0000358a300090032008d82720084827200e2
:103cb000610260008301d1000281d3008180d300c2
:103cc0000080d3000603e8001b0037000348a30070
:103cd00017003a000600e000170034000603e90070
:103ce0000d00a30000004800818048000201490047
:103cf000838149000348a3000f003a000600e0005a
:103d0000090034000603e9000000400081804800fb
:103d1000020149008381490001003a000003eb00e1
:103d20000348a300f5ff32006022b800020037000c
:103d300084827200618266006afd070003f0a100c0
:103d40000cf0a70003f0a000a6fd370064014700b7
:103d50006408e10002003a000df8a3009efd3a005d
:103d60003200be001201be009efd3700889fbe00db
:103d70008a9fbe008c9fbe000404be000605be00e4
:103d8000809fbe00829fbe002f00070004067800bf
:103d90000800be000a01be002b0007008406780060
:103da0004f03be004f02be008d4f76007fb09700dc
:103db00013003300f0ff2f008b8f6b0006003b00d9
:103dc0000d0666000c00a7000a00370007f0a600e9
:103dd000100020000a003700880f5200898f5a0017
:103de0008a0f5b008b8f5b000300390010002000fe
:103df00001003e000000200007f0a7000000ea00dc
:103e00004f06be004f05be004f04be000000060076
:103e1000e48240001078a3000700320064024000f2
:103e20001178a3003400be001401be00040032006b
:103e30000330a700000006003500be001501be00db
:103e40000330a0000000060005ff27000582610086
:103e5000070032000428e1000100320024000500c0
:103e60000600070001003a004400050004080500b0
:103e700002000700f9ff3a00140005006f8261009c
:103e80008102700085027100850272000000060048
:103e9000800078005002be005003be004439de00ae
:103ea000f700b200f37f2000030161000900320037
:103eb0000218e10016003a008501720083017300c8
:103ec000838173000008200015003a0040002000a4
:103ed0001300370085017200830173008381730032
:103ee00005003a0004a8be0006a8be00100020008d
:103ef0000b0037000201e9000402420085824a00fb
:103f000006034b0087834b000748a300f9ff3200ec
:103f10000740a00004a8be0006a8be0020002000a4
:103f2000800098009200980000000600881f78002a
:103f3000030478000300e00007003d00600010006b
:103f4000e080180060011900e081190002003b00c8
:103f500001f02d00030037000400070008f0a7005f
:103f600003f0a0004f04780000000600889fbe0008
:103f7000008270000402710004827100240032008b
:103f800036432000c50020008383cf000a0039009b
:103f90000541b1008283cf00070039000541b1001f
:103fa0008183cf00040039000541b1008083cf0038
:103fb000010039000541b10085c353006022b800fb
:103fc000120032000a003b0084827200610260002d
:103fd0008301d1000281d3008180d3000080d3000f
:103fe0000603e8008743e800f7ff3a0007003700c0
:103ff000000040008180480002014900838149009f
:104000000603e9008743e900f9ff3a00b5fc070021
:084010004f04be000000060091
:020000040000fa
:104018007b7500006269000063610000636900004d
:104028006f6e00003a2000005b2500002e32000071
:10403800662c0000202500002e320000665d00007e
:104048002c200000746500006d700000657200008f
:104058006174000075720000613a0000205b000086
:10406800252e0000336600002c200000252e0000bd
:10407800336600002c200000252e00003366000067
:104088002c200000252e0000336600005d2c000067
:104098002072000065760000657200007361000000
:1040a8003a200000257500002c20000074720000e2
:1040b800616d0000613a00002022000025730000b5
:1040c800227d00000a00000074720000616d00008b
:1040d8006100000070610000736f00000053000071
:1040e800544100005254000000530000544f000097
:1040f80050000000434f00004e540000494e00009d
:1041080055450000004300004f4e0000464900009e
:1041180047000000534500004e44000020530000b3
:10412800544f000050200000544f00002050000061
:104138004c410000544600004f5200004d00000062
:020000040000fa
:104148000400fa00100798000040eb00004f7800c8
:104158001e80fb009e009000008040009040780088
:1041680011479800010037001e4fe8001e80fb0031
:104178009e00900000804000104078000004e0009d
:10418800f9ff3a001e4078000080fa00000006009f
:104198001400fa00889fbe008a9fbe008c9fbe0054
:1041a800009fbe000297be00440798009e0078005a
:1041b800510798002e4090008086fb003e0090003a
:1041c8006c0040001005be003e00900068004000f2
:1041d8001004be003e009000640040001003be00c2
:1041e8003e0090001002be002e00900064004000c7
:1041f8001001be00020f9800130f98002e009000c7
:104208001001be0062079800730798004e069000e0
:10421800de019000831f78008d1f78008a9fbe0002
:10422800889fbe00869fbe00849fbe000e09900036
:104238009e099000829fbe006e019000fe019000d2
:10424800829fbe00c0002a00801f78000c00780002
:104258009ff40700fe8757004f06be004f05be00bb
:104268004f04be000080fa0000000600d400fa00e7
:1042780010af98000040eb00004f78000040eb00c2
:10428800104798000040eb0030479800e5004700d1
:104298003b0009008058eb000040eb0020479800e5
:1042a8008e0078001104b0000e0009008058eb0061
:1042b8008e0078000105b0000e0009008018eb00a0
:1042c8008e007800e106b000310009008018eb008c
:1042d800010520008e804000650047001ea990005f
:1042e8003a000700340037001e80fb0065004000dc
:1042f800ee407800d0c2b30080cf50000b003200ef
:104308001e4090000080fb009e80fb00e58040007e
:10431800eec078001004b000017778001e409000cd
:104328000040e80010479800220037001e40900027
:104338000080fb001004b0008040eb00017778009b
:104348000040eb0010479800100420000e004000c9
:1043580097000700404798004e4090000080fb00ff
:10436800e10f50000a003200e20f50000e00320048
:104378000000e0000f003a00000520000e00400099
:1043880080007800202a2100a001070009003700da
:10439800000520000e004000800078000000210089
:1043a800db0007000300370010c0b3002047980067
:1043b800000000001e4fe8002e4090000004e000be
:1043c800c9ff32000080fa00000006000c00fa0065
:1043d8003007980041079800520798005e00900047
:1043e80057ff0700504798000040eb00104798001f
:1043f8000040eb00204798000040eb003047980051
:104408000040eb004047980010c0b300004f780010
:104418005f0037001e80fb00de0090000080400037
:10442800104078000080fb00c1022000810f50007e
:104438001f003200c1022000810f500007003c001d
:1044480001022000810f50004b00320021022000a1
:10445800810f50004a0032002a003700b1052000c1
:10446800810f500021003200d1052000810f50003b
:1044780021003200a1032000810f500021003a00e2
:104488001e4090000080fb00be00900000804000ad
:10449800d1c2b300014878001e4090000040e800f7
:1044a8001047980010c0b300304798003700370015
:1044b8002e4090000080fb00ce009000008040005d
:1044c800d1c2b300014878002e4090000040e800b7
:1044d800204798004e4090000004e0002a003a006f
:1044e8000040eb00304798002800370010c0b300a8
:1044f80040479800250037000040eb0040479800ef
:10450800220037003e4090000004e0000d00320019
:104518002e4090000080fb00ce00900000804000fc
:104528009e80fb005e019000810041009140780070
:10453800014878002e4090000040e800204798008d
:10454800120037001e4090000080fb00be00900063
:10455800008040009e80fb005e01900081004100c9
:1045680091407800014878001e4090000040e80023
:1045780010479800050037000000000003003700ce
:104588000000000001003700000000001e4fe80096
:104598009e80fb005e4090000080fb000000e90068
:1045a800808f50009bff35000080fa000000060055
:1045b8000400fa001007980020c0b300004f7800ec
:1045c8000040eb00104798001e0090001040780053
:1045d8000080fb0001072000810f50000e00320010
:1045e80041072000810f500019003a0080062a0078
:1045f800800078001e0090001800070010479800ff
:104608001e409000e14f50000e003a000040eb00c1
:10461800004f78000e003700e0062a00800078007e
:104628001e0090000d000700104798001e409000e3
:10463800e14f500005003a0010c0b300004f780069
:1046480003003700000000000100370000000000f0
:104658001e4078000080fa00000006000800fa00fa
:1046680020079800310798002e009000b4fe07003c
:10467800204798003e009000b1fe070030479800a0
:104688000040eb00004f7800ae4090003e409000a4
:1046980080cf50001b003a0010c0b300004f7800d4
:1046a8000040eb0010479800120037001e409000b1
:1046b8000080fb00ae009000008040009040780031
:1046c8001e4090000080fb003e0190000000410069
:1046d8001040780080cf5000030032000040eb000b
:1046e800004f7800070037001e4090000040e800a7
:1046f800104798009e4090002e40900080cf5000b8
:10470800eaff39001e4078000080fa000000060029
:104718006000fa00602f9800712f9800e4004700ad
:104728001d0009008018eb000040eb00004f7800e6
:104738000040eb00104798000040eb00204798002d
:104748007e2890007efe0700304798008e00780093
:104758000104b000040009008018eb008e00780006
:10476800a104b000040009008018eb006000b80044
:10477800202f9800312f98006000b800402f980033
:10478800512f9800450037002e4090000080fb0014
:10479800e10f50001c003200e20f500032003200de
:1047a8000000e0003c003a001e80fb00fe2890005c
:1047b8000080400090407800d0c2b30080cf500005
:1047c80005003a0010c0b300204798000040eb00f5
:1047d80010479800300037001e4090000080fb0012
:1047e8009e80fb007e299000810041009140780066
:1047f8000004b000017778001e4090000040e800f7
:1048080010479800240037001e80fb00fe28900007
:104818000080400090407800d0c2b30080cf5000a4
:1048280005003a0020c0b300204798000040eb0084
:1048380010479800180037001e4090000080fb00c9
:104848009e80fb007e299000810041009140780005
:10485800a004b000017778001e4090000040e800f6
:10486800104798000c0037001e4090000080fb00a5
:104878009e80fb007e2990008100410091407800d5
:1048880064004000017778001e4090000040e80076
:1048980010479800000000001e4fe8003e409000be
:1048a8009e40780080cf5000b7ff390000042000f8
:1048b8000e00400031c0b30012000700202f9800fe
:1048c800312f9800a00420000e00400031c0b30032
:1048d8000c000700402f9800512f980064004700f3
:1048e800800078007e28900098000700410520008d
:1048f8008e8040006e289000940007000080fa0027
:10490800000006000c00fa00889fbe0040079800cf
:10491800214f98004e00900009fe0700604798005c
:104928002e4890000040ea001047980010c0b300dd
:10493800704798006000b800100798002107980099
:104948006e4090000040e900004f780027003700d3
:104958001e00fb00ce0090000080400090407800d0
:10496800e0c2b30080cf50001e0032001e00fb00e2
:10497800ce00900000804000104078000080fb00ce
:104988000003b100cf80de00cfef07000004be00b7
:104998001e4090000000fb00cf80de00caef070039
:1049a8000001be0000002000011224003bf00700b7
:1049b8000001be000800be0004f007000001be00b0
:1049c8001e009000ae00900020ef0700100798002e
:1049d800210798001e4090000040e800104798000a
:1049e80001003700000000001e4fe9001e4078005b
:1049f8000004e000d6ff3d001e009000ae009000cd
:104a08004f04be000080fa00000006005000fa00c3
:104a18006027980071279800e50047000900090001
:104a28008058eb000040eb00004f78000040eb009e
:104a380010479800ef0047003b0009008058eb0042
:104a48007e209000befd0700304798000040eb0034
:104a5800204798000040eb00004f78002d003700f9
:104a68001e80fb00fe2090000080400090407800ef
:104a7800414798002e4090000080fb000000e000b5
:104a880003003200e10f5000180032002000370008
:104a9800ce409000d0c2b30080cf50000a003a0048
:104aa8001e4090000080fb00650040008040eb0045
:104ab8000177780010c0b300204798000040eb0051
:104ac80010479800120037001e4090000080fb003d
:104ad80065004000ce409000017778001e409000ad
:104ae8000040e80010479800090037001e40900079
:104af8000080fb006f004000ce40900001777800f6
:104b08001e4090000040e800104798000000000098
:104b18001e4fe8003e4090009e40780080cf500035
:104b2800cfff390065004700800078006e209000b4
:104b3800060007006f004700800078007e20900084
:104b4800020007000080fa00000006000600fa00d4
:104b580010079800210798002e00900078fd0700a4
:104b6800104798000040eb00004f7800090037001c
:104b78001e80fb009e009000008040009e80fb008d
:104b88002e01900081004100914078000148780092
:104b98001e4fe8001e4090009e40780080cf5000d5
:104ba800f3ff39001e4090000080fb009e0090003b
:104bb800008040008040eb00014878000080fa0047
:104bc800000006000e00fa00400798005107980000
:104bd800620798000040eb00204798004e019000c3
:104be800de01900022079800330798006e009000bd
:104bf8000000e00005003d006e0090000000ea00a3
:104c08006007980010c0b300204798000000eb0030
:104c1800000f7800080037004e019000de01900078
:104c28002e009000be00900068ef07002007980053
:104c3800310798001e0fe8006e0090009e0f50008c
:104c4800f5ff3e002e4090000004e000070032000f
:104c58002e019000be0190000000200001f8230002
:104c6800d7ee070020079800310798000080fa0067
:104c7800000006000400fa00100798000040eb004e
:104c8800004f7800010037001e4fe8001e80fb002f
:104c98009e00900000804000104078000004e00072
:104ca800f9ff3a001e4078000080fa000000060074
:104cb8000400fa00100798001e009000edff07009e
:104cc800104798000040eb00004f780006003700be
:104cd8001e80fb009e00900000804000104078007d
:104ce800dd0207001e4fe8001e4090009e4078003d
:104cf80080cf5000f6ff3900d0c0b300d6020700bd
:104d08000080fa00000006000000fa00d00420002d
:104d18002010880007e2a8000208a9000722a800be
:104d28000762a9000702a8000080fa000000060038
:104d38000400fa0020479800314798002e40900060
:104d480000404000804078003e40900000cf400086
:104d58001e407800020007000080fa0000000600ec
:104d68000200fa00004f78000000000040108000a8
:104d7800610060000000e000fcff3a000228a90082
:104d88001e80fb0010108800000000004110800009
:104d980000002800008060000000e000fbff3a00ef
:104da8000000000010408000620060000000e00089
:104db800fcff3a00000000004110800000002400c1
:104dc800008060000000e000fbff3a000080fa006d
:104dd800000006000800fa001007980041479800f4
:104de80052479800634798008040eb006e4090005f
:104df800cfff07005e409000d9ff07000040eb009e
:104e0800004f7800060037001e80fb009e009000cf
:104e18000080400010407800d1ff07001e4fe800d6
:104e28004e4090009e40780080cf5000f6ff390039
:104e38000642a800000000003010800064006000f6
:104e48000000e000fcff3a000080fa0000000600c5
:104e58000400fa00204798000228a9000662a8006a
:104e68000000000010408000620060000000e000c8
:104e7800fcff3a000228a900000000004010800052
:104e8800620060000000e000fcff320000108000bb
:104e9800004f78002e409000e14f500001003a008a
:104ea800400007001e4078000080fa00000006005d
:104eb8000800fa00881f78001007980041479800fa
:104ec80052479800634798002d0007008040eb0088
:104ed8006e40900096ff07005e409000a0ff07001c
:104ee8004000070011c0b3006e40900090ff07001b
:104ef8000040eb00004f78004e419000b1002100c7
:104f0800824878000040eb00004f7800140037001a
:104f18001e80fb009e009000008440000040eb00d3
:104f2800cbff0700004c78009e80fb004e409000ad
:104f38000080fb000000e900808f5000070032006d
:104f480006a2a9000682a800000000003010800018
:104f5800700060000000e000fcff3a001e4fe8000f
:104f68004e4090009e40780080cf5000e8ff390006
:104f78000c0007004f0478000080fa0000000600cb
:104f88000000fa000602a8000000000030108000af
:104f9800610060000000e000fcff3a000080fa00b9
:104fa800000006000000fa0006a2a8000682a80079
:104fb8000000000030108000700060000000e00079
:104fc800fcff3a000642a8000000000030108000f4
:104fd800640060000000e000fcff3a000080fa0076
:104fe800000006000000fa000622a80000000000e9
:104ff80030108000620060000000e000fcff3a0012
:105008000080fa00000006000800fa0060479800d7
:105018000000eb002007980064004700ee41900074
:1050280072c0b30021c0b300a1ff07005e4090002a
:105038008080fb00f007200000806000c800dd00d1
:105048004e4090000080fb0000804000cf80de00d2
:105058001dee0700a2702d0033ca23005bee070087
:10506800323329008338240077ed0700008fbe0013
:105078001e00be000080fa00000006006c00fa0066
:1050880020379800313798004237980053379800f6
:1050980031000900001feb004e06b1000e02780037
:1050a8002e309000be3090004e319000de319000de
:1050b80037fc07000e007800fdfe07000080fa00ac
:1050c800000006000400fa00100798000040eb00fa
:1050d800004f7800010037001e4fe8001e80fb00db
:1050e8009e00900000804000104078000004e0001e
:1050f800f9ff3a001e4078000080fa000000060020
:105108000400fa00100798001e009000edff070049
:10511800104798000040eb00004f78000600370069
:105128001e80fb009e009000008040001040780028
:105138008c0307001e4fe8001e4090009e40780038
:1051480080cf5000f6ff3900d0c0b30085030700b8
:105158000080fa00000006000000fa0030072a006c
:10516800e7ff07000080fa00000006000000fa00d0
:1051780090072a00e2ff07000080fa0000000600fe
:105188000000fa00e0072a00ddff07000080fa00af
:10519800000006000800fa00008fbe0022079800f1
:1051a8003307980070082a00d5ff07000080fa002e
:1051b800000006000000fa000cd0bf000080fb00d1
:1051c800e20f500008003200e30f500003003200e5
:1051d800e10f5000070032000800370009000700ff
:1051e80069000700050037006c0007000f00070082
:1051f8000200370032000700000000000080fa00bb
:10520800000006000000fa00c02a210017fc070071
:10521800000021008080880022d0bf000080fb00b1
:10522800708088000080fa00000006000400fa0080
:105238007180800030072a0008fd07001047980099
:105248007180800090072a0004fd0700204798001d
:105258007180800070082a0000fd07003047980020
:1052680030c0b300004f78001e4090000004e000fa
:10527800030032000040eb00004f78000b003700bd
:105288002e4090000004e0000300320010c0b3007c
:10529800004f7800050037003e4090000004e00011
:1052a8000200320020c0b300004f78001e41780091
:1052b80021022100824878000080fa0000000600e0
:1052c8009800fa00e8004700220009008018eb0067
:1052d8006000b80070279800012f98006000b8009f
:1052e800102f9800212f98008e0078006105b000db
:1052f800070009008018eb0080f62600c11626007a
:1053080030379800413798006000b800503798004f
:10531800613798008e007800e106b000140009009b
:105328008018eb00e00420000e00400020079800e1
:105338000040eb002047980061062000010f47005d
:10534800a0c5b30030ff0700302f9800412f980008
:10535800600520000e004000300798000dd0bf0007
:10536800e14f500002003a000c70ef0004003700d3
:105378000dd0bf000cf0b70010c0b3000df0b7009f
:105388000080fa00000006000000fa0020c0b30008
:105398000cf0b7000080fa00000006000000fa00d8
:1053a80022d0bf000080fb00e10f50000600320051
:1053b800e20f5000060032000000e00006003a004c
:1053c80007000700040037000b0007000200370041
:1053d80010000700000000000080fa00000006002e
:1053e8000000fa005cff070010c0b3000cf0b70023
:1053f8000080fa00000006000000fa00e0082a0019
:105408002bfe070059ff07000c70ef000080fa0020
:10541800000006000000fa00808080001000be0036
:10542800d0808800e180880080808000640040008f
:105438001000be00f0808800018188000c70ef0029
:105448000080fa00000006003600f800809fbe00c9
:10545800829fbe00849fbe00869fbe000000fa00a7
:105468000068a90009d0bf000040e80009f0b700b3
:105478009100210091407800c0c3b30080cf500054
:105488000c003a0030c0b3000cf0b70008d0bf00e1
:105498000080fb00c12a2100008040008040eb0012
:1054a80001487800c02a210001fe07000870ef00bb
:1054b80005e1a9000080fa004f03be004f02be00bc
:1054c8004f01be004f00be003600f9000040060044
:1054d800809fbe00821f78000000fa000168a900c2
:1054e80008d0bf000080fb003111800081407800a7
:1054f800c22a2100000041000148780008d0bf00fe
:105508000040e80008f0b7000970ef000021ef0044
:1055180005e1a8000080fa004f0178004f00be00a6
:10552800004006003600f800809fbe00829fbe0043
:10553800849fbe00869fbe000200fa000a48a900a8
:10554800b0128000004f78001e407800ed4f5000e8
:1055580026003a0023d0bf000080fb000131210063
:10556800008040008040eb0001487800e0072a00f6
:10557800800078000031210038fc070010479800af
:1055880023d0bf00f042b000b30007000031210073
:10559800ccfe07000043b000af000700e0072a0078
:1055a800c8fe07000043b000ab000700d0c0b3003e
:1055b800a900070000312100bdfd07001e40900032
:1055c8000043b000a40007001e409000e14f5000c7
:1055d80004003a000cd0bf000df0b70010c0b300b3
:1055e8000cf0b7002370ef000800370023d0bf008d
:1055f8000080fb0001312100008040001e48780037
:1056080023d0bf000040e80023f0b7000080fa0074
:105618004f03be004f02be004f01be004f00be0048
:105628003600f900004006000000fa007205070085
:10563800b5fd0700dffe0700feff37000000fa0097
:105648002188a9002168a900800020000011880095
:105658002222ef002006200040118800801d210032
:1056680050818800801d210040818800d0232100be
:1056780030818800d0232100208188002c70ef0021
:10568800a0bc22000700070080be220042000700dd
:105698002168a80021e2a8002342a8000080fa009f
:1056a800000006000200fa00000f78001e007800d3
:1056b8000000e00003003a00a0bc220070818800ce
:1056c800020037001e007800708188000080fa0010
:1056d800000006003600f800809fbe00829fbe00d2
:1056e800849fbe00869fbe000000fa007081800083
:1056f800000001005181800040818000808f5000af
:1057080002003a002188a900190037000188a90081
:105718001000370050818000904078008180fb00a5
:10572800211188000000e800508188005181800024
:10573800d0232100808f500002003a00801d2100f4
:10574800508188005181800040818000808f500006
:105758000600320011118000002020000080600047
:105768000000e000ebff32000100370000000000fd
:105778000080fa004f03be004f02be004f01be007a
:105788004f00be003600f900004006000000fa0095
:105798000080fa00000006000200fa00000f7800fe
:1057a8001e0078000000e00003003a0080be2200de
:1057b80080818800020037001e0078008081880000
:1057c8000080fa00000006000000fa000080fa00dd
:1057d80000000600801f78000000fa001011800009
:1057e800620060000000e000010032002222a900ef
:1057f8000828a9000080fa004f0078000040060041
:105808000200fa000040eb00004f780000000000a2
:105818003181800020818000808f5000fcff3200a1
:1058280030818000104f7800308180000000e8004f
:105838003081880031818000202a2100808f50002b
:1058480002003a00d0232100308188001e407800f1
:105858000080fa00000006000200fa00004f7800fd
:10586800000000001c0007000004a2000004e00083
:10587800fcff3a00408180001e487800408180008b
:105888000000e8004081880041818000d023210089
:10589800808f500002003a00801d2100408188005e
:1058a8002188a8000080fa00000006000000fa0025
:1058b80031818000208180000080680000f0a7000e
:1058c8000000ea000000ea004f00de000040780017
:1058d8000080fa00000006000400fa0051818000f0
:1058e80011079800418180001e009000808f5000b1
:1058f800060031009e00900040818000008050002a
:105908000000e900000f7800050037009e009000b5
:1059180040818000008050004006b000000f7800f1
:105928001e00780000f0a7000000ea000000ea006e
:105938004f00de00004078000080fa0000000600fa
:105948000000fa004181800050818000808f500063
:1059580009003a001111800000102000008060004a
:1059680000f0a7000000ea000000ea004f00de0097
:1059780000407800010037000040eb000080fa008a
:10598800000006000400fa00218180001107980039
:10599800308180009e009000808f5000060031000a
:1059a8009e00900030818000008050005006b000ba
:1059b800000f7800040037009e00900030818000be
:1059c80000805000000f7800f00f20009e00780043
:1059d800808f50000200360000c0eb000200370044
:1059e8001e007800004078000080fa0000000600e1
:1059f8000400fa005181800011079800418180005d
:105a08001e009000808f5000060031009e0090001c
:105a180040818000008050000000e900000f7800fd
:105a2800050037009e0090004081800000805000f3
:105a38004006b000000f7800f00f20009e007800ac
:105a4800808f50000200360000c0eb0002003700d3
:105a58001e007800004078000080fa000000060070
:105a68000800fa002007980031079800c5ff0700d2
:105a78000080fb00000f78003e0090009e0f500051
:105a880002003100be009000010f78000000eb001a
:105a9800100798000900370059ff0700ae00900072
:105aa800804878002e0090000000e8002007980049
:105ab8001e0090000000e800100798001e009000eb
:105ac8009e0f5000f4ff39001e0078000080fa0095
:105ad800000006000800fa00200798003107980027
:105ae800c3ff07000080fb00000f78003e00900015
:105af8009e0f500002003100be009000010f780098
:105b08000000eb0010079800090037002e009000f5
:105b180010407800ae0090008100e800210798004e
:105b28004dff07001e0090000000e80010079800d5
:105b38001e0090009e0f5000f4ff39001e007800f0
:105b48000080fa00000006000400fa000000eb00e4
:105b5800000f78008bff070020479800a4ff07007c
:105b6800304798002e4090000080fb000000e000c5
:105b78000400320051062000810f5000030032005b
:105b8800040037001e20a000040037001e00a000fb
:105b9800020037001e10a000000000003e409000e8
:105ba8000080fb000000e0000400320051062000e5
:105bb800810f500003003200040037001e30a0009f
:105bc800020037001e40a000000000001e00780000
:105bd8000080fa00000006000400fa001007980090
:105be800318180001e009000008f400002003700c5
:105bf800b1f92f001e8f4000202a21009e00780056
:105c0800808f5000faff3e001e0078001040780098
:105c18000080fa00000006000000fa0059ff0700a3
:105c28000080fb000000e9004f00de000040780023
