:020000040000fa
:080000000002040000000000f2
:020000040000fa
:0400080006030000eb
:020000040000fa
:04000c0018030000d5
:020000040000fa
:0400100030030000b9
:020000040000fa
:040014000e030000d7
:020000040000fa
:0400180020030000c1
:020000040000fa
:04001c0028030000b5
:020000040000fa
:0400200038030000a1
:020000040000fa
:0400240018040000bc
:020000040000fa
:0400280018040000b8
:020000040000fa
:04002c0018040000b4
:020000040000fa
:0400300018040000b0
:020000040000fa
:0400340018040000ac
:020000040000fa
:0400380018040000a8
:020000040000fa
:04003c0018040000a4
:020000040000fa
:0400400018040000a0
:020000040000fa
:04004400180400009c
:020000040000fa
:040048001804000098
:020000040000fa
:04004c001804000094
:020000040000fa
:040050001804000090
:020000040000fa
:040054009c03000009
:020000040000fa
:040058004003000061
:020000040000fa
:04005c001804000084
:020000040000fa
:040060001804000080
:020000040000fa
:04006400180400007c
:020000040000fa
:040068001804000078
:020000040000fa
:04006c001804000074
:020000040000fa
:040070001804000070
:020000040000fa
:04007400180400006c
:020000040000fa
:040078001804000068
:020000040000fa
:04007c001804000064
:020000040000fa
:040080001804000060
:020000040000fa
:04008400180400005c
:020000040000fa
:040088001804000058
:020000040000fa
:04008c001804000054
:020000040000fa
:040090001804000050
:020000040000fa
:04009400180400004c
:020000040000fa
:040098001804000048
:020000040000fa
:04009c001804000044
:020000040000fa
:0400a0001804000040
:020000040000fa
:0400a400180400003c
:020000040000fa
:0400a8001804000038
:020000040000fa
:0400ac001804000034
:020000040000fa
:0400b0001804000030
:020000040000fa
:0400b400180400002c
:020000040000fa
:0400b8001804000028
:020000040000fa
:0400bc001804000024
:020000040000fa
:0400c0001804000020
:020000040000fa
:0400c400180400001c
:020000040000fa
:0400c8001804000018
:020000040000fa
:0400cc001804000014
:020000040000fa
:0400d0001804000010
:020000040000fa
:0400d400180400000c
:020000040000fa
:0400d8001804000008
:020000040000fa
:0400dc001804000004
:020000040000fa
:0400e0001804000000
:020000040000fa
:0400e40018040000fc
:020000040000fa
:0400e80018040000f8
:020000040000fa
:0400ec0018040000f4
:020000040000fa
:0400f00018040000f0
:020000040000fa
:0400f40018040000ec
:020000040000fa
:0400f80018040000e8
:020000040000fa
:0400fc0018040000e4
:020000040000fa
:0401000018040000df
:020000040000fa
:0401040018040000db
:020000040000fa
:0401080018040000d7
:020000040000fa
:04010c0018040000d3
:020000040000fa
:0401100018040000cf
:020000040000fa
:0401140018040000cb
:020000040000fa
:0401180018040000c7
:020000040000fa
:04011c0018040000c3
:020000040000fa
:0401200018040000bf
:020000040000fa
:0401240018040000bb
:020000040000fa
:0401280018040000b7
:020000040000fa
:04012c0002040000c9
:020000040000fa
:0401300018040000af
:020000040000fa
:0401340018040000ab
:020000040000fa
:0401380018040000a7
:020000040000fa
:04013c0018040000a3
:020000040000fa
:04014000180400009f
:020000040000fa
:04014400180400009b
:020000040000fa
:040148001804000097
:020000040000fa
:04014c001804000093
:020000040000fa
:04015000180400008f
:020000040000fa
:04015400180400008b
:020000040000fa
:040158001804000087
:020000040000fa
:04015c001804000083
:020000040000fa
:04016000180400007f
:020000040000fa
:04016400180400007b
:020000040000fa
:040168001804000077
:020000040000fa
:04016c001804000073
:020000040000fa
:04017000180400006f
:020000040000fa
:04017400180400006b
:020000040000fa
:040178001804000067
:020000040000fa
:04017c001804000063
:020000040000fa
:04018000180400005f
:020000040000fa
:04018400180400005b
:020000040000fa
:040188001804000057
:020000040000fa
:04018c001804000053
:020000040000fa
:04019000180400004f
:020000040000fa
:04019400180400004b
:020000040000fa
:040198001804000047
:020000040000fa
:04019c001804000043
:020000040000fa
:0401a000180400003f
:020000040000fa
:0401a400180400003b
:020000040000fa
:0401a8001804000037
:020000040000fa
:0401ac001804000033
:020000040000fa
:0401b000180400002f
:020000040000fa
:0401b400180400002b
:020000040000fa
:0401b8001804000027
:020000040000fa
:0401bc001804000023
:020000040000fa
:0401c000180400001f
:020000040000fa
:0401c400180400001b
:020000040000fa
:0401c8001804000017
:020000040000fa
:0401cc001804000013
:020000040000fa
:0401d000180400000f
:020000040000fa
:0401d400180400000b
:020000040000fa
:0401d8001804000007
:020000040000fa
:0401dc001804000003
:020000040000fa
:0401e00018040000ff
:020000040000fa
:0401e40018040000fb
:020000040000fa
:0401e80018040000f7
:020000040000fa
:0401ec0018040000f3
:020000040000fa
:0401f00018040000ef
:020000040000fa
:0401f40018040000eb
:020000040000fa
:0401f80018040000e7
:020000040000fa
:0401fc0018040000e3
:020000040000fa
:0402000018040000de
:020000040000fa
:0402040018040000da
:020000040000fa
:0402080018040000d6
:020000040000fa
:04020c0018040000d2
:020000040000fa
:0402100018040000ce
:020000040000fa
:0402140018040000ca
:020000040000fa
:0402180018040000c6
:020000040000fa
:04021c0018040000c2
:020000040000fa
:0402200018040000be
:020000040000fa
:0402240018040000ba
:020000040000fa
:0402280018040000b6
:020000040000fa
:04022c0018040000b2
:020000040000fa
:0402300018040000ae
:020000040000fa
:0402340018040000aa
:020000040000fa
:0402380018040000a6
:020000040000fa
:04023c0018040000a2
:020000040000fa
:04024000180400009e
:020000040000fa
:04024400180400009a
:020000040000fa
:040248001804000096
:020000040000fa
:04024c001804000092
:020000040000fa
:04025000180400008e
:020000040000fa
:04025400180400008a
:020000040000fa
:040258001804000086
:020000040000fa
:04025c001804000082
:020000040000fa
:04026000180400007e
:020000040000fa
:04026400180400007a
:020000040000fa
:040268001804000076
:020000040000fa
:04026c001804000072
:020000040000fa
:04027000180400006e
:020000040000fa
:04027400180400006a
:020000040000fa
:040278001804000066
:020000040000fa
:04027c001804000062
:020000040000fa
:04028000180400005e
:020000040000fa
:100400008f2521000eff27000e018800000000004c
:10041000000020000000e000020032000001200087
:100420002002880014000700030107000000e0001c
:1004300003003a00003322000100200002003700d0
:100440000000200001002000810f70000100320038
:100450000f000700000020000000e0000200320052
:1004600000000200000000009c1e020000000000ce
:100470000040da000000fe00c00620000000e0009e
:1004800002003200002020009001880000000600d9
:10049000a1028800800478000000eb001f003700f4
:1004a000e284440054a0b4009905ba00e2844400f8
:1004b00054a0b4009906ba00e284440054a0b400e9
:1004c0000006eb00476fde00fd07b200ae018800ba
:1004d000636ce10003003a000ad801000000eb0061
:1004e0000e003700606ce10008003a00004deb00a0
:1004f0000a05e800020039003420ec000af0a000f0
:100500008b05e900f9ff3e00040037006168e10057
:10051000010032000086eb000b00070019c7ba008b
:100520000e04e0001905ba0003003a000a00e000da
:10053000dbff3a0000000600fe07b200ae028800b2
:100540008a047800f5ff37000cd0a300e20f4d00bd
:100550001c00390089027800354dba000a05e80010
:10056000020039003420ec000af0a0008b05e900fd
:100570000f003200254dba000a05e80002003900dc
:100580003420ec000af0a0008b05e90008003200de
:100590000c00e0000600320015cdba000a05e800a4
:1005a000020039003420ec000af0a0008b05e900bd
:1005b0008984e80054a0b4000b00e000e2ff3a0098
:1005c000000006009902ba00055d78008b05e9007d
:1005d000f7ff3200c82ade00055d78008b05e900d0
:1005e000f3ff32000c00e000f1ff320019ddba0029
:1005f000eeff3700541f040000000000721f0400cb
:10060000000000001e040400000000003600f80096
:10061000c028a9000000eb00fa1007003600f8001f
:10062000fc100700c048a90010002000f5100700ca
:100630003600f800c068a90020002000f110070073
:100640003600f800c088a90030002000ed10070037
:100650003600f800c0a8a90040002000e9100700fb
:100660003600f800c608a90070002000e510070059
:100670003600f800c488a900a0002000e11007009f
:100680003600f800809fbe00829fbe00849fbe009f
:10069000869fbe000000fa0050808000000001002c
:1006a0003180800020808000808f500002003a005e
:1006b0002188a900190037000188a900100037001f
:1006c00030808000904078008180fb0021118800fc
:1006d0000000e8003080880031808000900d21000b
:1006e000808f500002003a00000121003080880015
:1006f0003180800020808000808f50000600320012
:100700001111800000202000008060000000e00047
:10071000ebff320001003700000000000080fa000b
:100720004f03be004f02be004f01be004f00be008f
:100730003600f900004006003600f800809fbe0039
:10074000829fbe00849fbe00869fbe000000fa000c
:1007500060808000000001000168a9001e003700d1
:1007600000808000311180008140780001487800cd
:1007700001808000101a2100808f50000900320093
:10078000008080008000e80010808000808f500092
:1007900004003200008080000000e8000080880033
:1007a0000d00370001808000101a2100808f50005a
:1007b00007003a0011808000900d2100808f5000ca
:1007c00003003200900d21000080880002003700f5
:1007d00010c0b30008f0b700101180006100600085
:1007e0000000e000deff3a000080fa004f03be0088
:1007f0004f02be004f01be004f00be003600f900a0
:1008000000400600801f78000000fa0010118000f0
:10081000620060000000e000010032002222a90016
:100820000828a9000080fa004f0078000040060068
:100830000040da000000fe0000000500881f78007c
:100840000204780008017800c40007000800400096
:100850004f047800000006000000fa00881f7800ae
:1008600000047800ea8157003fb9970088007800bb
:10087000e0412000070007000000e0000200350012
:1008800000044400004ceb004f0478000080fa00a4
:10089000000006006200fa00889fbe008a1f7800f0
:1008a0000005780081047800020478008300780055
:1008b00080f92f000f004000770107009a979f00f2
:1008c000a9979f000000eb00b09f9f001885fb00d8
:1008d0008a04fb000a05ea004f55de0050022000a2
:1008e000808f54000d003200e10f55000b003a00dc
:1008f0000a017800880078002f9097009f91970058
:1009000003000100a0979f000000e0008e0032006d
:100910003f9897000000e800b09f9f000a04440041
:1009200050022000808f5400040032000900e000d3
:10093000e6ff3a003f989700840037000000eb0084
:10094000909f9f00809f9f00f0979f00e0979f00df
:10095000d0979f00c0979f00070037000125210016
:100960000100500000004000412421008080400030
:100970005f98970011007000d09f9f008804780056
:1009800009047800384578008a00fb000025210022
:10099000790007000000e000f0ff3a00a1c2b300b8
:1009a000814f55000e003a00cf8897000180e90082
:1009b000c08f9f0010007800c09f9f000000e000e3
:1009c00005003d000000ea00c09f9f005f9897006f
:1009d0000020a000d09f9f000904e8000f0037000e
:1009e000c09f9f000000eb0005003700f2ff2700ca
:1009f000820f500002003200ea00b900008040007f
:100a00000904780088047800b900fb000103b100f4
:100a1000e98f5000f5ff3600c09f9f00e0c2b30091
:100a2000984f1000020032000080eb0019003700e0
:100a3000a0c2b300d84f100007003a00cf8897003b
:100a40000180e900c08f9f0010007800a09f9f00e8
:100a50000804e800100037000000eb00a09f9f0092
:100a60008800780005003700f3ff2700830f50004f
:100a700002003200ea00b9000000410001047800e1
:100a8000880078003101fb000203b100e90f51003a
:100a9000f5ff3600a09f9f00984478008900fb0076
:100aa000c0232100340007000000e00002003200f3
:100ab0000804e800010037008044eb00c97f9f0074
:100ac00080c6b30080cf540004003a0098cf1400d1
:100ad0000a003a006640500006003700c0c6b30066
:100ae00080cf540005003a0098cf140003003a006c
:100af00065404000c07f9f000804e8001801fb002b
:100b0000e3fb2f008f81410081f92f008f8040008f
:100b1000a0f92f000f004000e10007000000e000f6
:100b200009003a00e1fb2f008f804000a0f92f0060
:100b30000f0040001c0007000000e000020035002c
:100b40000804e80061ff37000080eb004f057800e3
:100b50004f04be000080fa0000000600800178000b
:100b600002003700b15978000201e9000200e000fc
:100b7000fcff3a0000000600020037000304e0001a
:100b8000060032000001780002007800b0417800d1
:100b900081cf5100f9ff3a00010037000001eb005e
:100ba00002007800000006000400fa00889fbe00e2
:100bb0008a9fbe008c1f7800000478000106780030
:100bc000f80d90007800900080855500080890008e
:100bd00080855500180890008085550028089000f1
:100be00080855500380890008085550048089000a1
:100bf000808555000002220090bf9f000003230063
:100c0000a0bf9f00081090000028a30015003a0024
:100c10000b00e000130034000b0578008a04780014
:100c2000e20f55000100360029002000c8019000a5
:100c300009017800ee805700580090000300010081
:100c4000500498000000e0008c003200680890001a
:100c500009004000600c9800090555004240a900b9
:100c6000eeff3c00780190000200e0000c00340030
:100c7000c80190008c00780058009000030001002b
:100c8000500498008080eb000000e0007c003200ff
:100c9000e80890007800900000804000600c980008
:100ca000880c90000900e00011003400090578006c
:100cb000e28f5400010036002a002000c801900095
:100cc0000a017800ec8057005800900003000100f2
:100cd000500498000000e0006800320068089000ae
:100ce0000a004000600c98008a845400edff370031
:100cf000180990000200e0000c003400c8019000c8
:100d0000e800900058009000030001005004980093
:100d10008080eb000000e00059003200e8089000fd
:100d20001808900000804000600c9800a80c90000b
:100d30000900e0001100340009057800e28f54003a
:100d4000010036002a002000c80190000a01780046
:100d5000ec805700580090000300010050049800f8
:100d60000000e00045003200680890000a004000e2
:100d7000600c98008a845400edff37003809900019
:100d80000200e0000e003400e80090001808900017
:100d900080804000c80190005800900003000100ce
:100da000500498008080eb000000e0003400320026
:100db000e80890003808900000804000600c98001f
:100dc000c80c90000900e00011003400090578000b
:100dd000e28f5400010036002a002000c801900074
:100de0000a017800ec8057005800900003000100d1
:100df000500498000000e0002000320068089000d5
:100e00000a004000600c98008a845400edff37000f
:100e1000081090008000eb000028a30018003200aa
:100e20000b00e000160034008b0478000905780000
:100e3000e28f5400010036002a002000c801900013
:100e40000a017800ee80570058009000030001006e
:100e5000500498000000e00008003200680890008c
:100e60000a004000600c98008a8454004240a900a7
:100e7000eeff3c008000eb00010037008080eb00bb
:100e8000010078004f0678004f05be004f04be00f9
:100e90000080fa000000060001087800000006004b
:100ea000889fbe008a1f7800000478008244780082
:100eb0000305780070c6b30080cf540021003c00c9
:100ec00000c0e90080cf5400e6003d0072405000b1
:100ed00080cf5400530132000d003c006c405000a4
:100ee00080cf540066013c0000c0e90080cf540070
:100ef000dc003d0050c2b30080cf54005d013200e1
:100f00007c40400080cf54005d013a00d50037009e
:100f100010c6b30080cf5400d200320004003c0061
:100f20006940500080cf540055013a0073003700eb
:100f300030c6b30080cf5400180032000040e800f3
:100f40000900370000c7b30080cf540027013200ea
:100f500008003c0000c0e90080cf5400f0003200df
:100f600066003c006540500080cf540044013a00c8
:100f70001000370050c7b30080cf54005f0032002c
:100f80006340400080cf54005c0032006540500058
:100f900080cf54003a013a00220137001181e90064
:100fa000820878007800900000054500124d780016
:100fb0003901370028609000c2c6b300824f50004c
:100fc00008003a00110178006400510080087800a0
:100fd00090009000100078004f89de0082017800b8
:100fe0001600370012c7b300824f500003003a00ca
:100ff000110278006800520005003700a2c6b30055
:10100000824f500008003a00910278006880520038
:10101000800878009000900020019000b0019000be
:1010200010007800050037001180e9008008780082
:1010300010007800cf80de006109b900009cbe007e
:101040000294be002862900085c6b300854f52000e
:101050000d00320025c6b300854f520004003a004f
:101060000000fb00cf80de006109b90008003700f6
:1010700045c7b300854f520003003200e6c242006c
:10108000854f520004003a00cf80de006109b900ac
:10109000009cbe000294be001802780098029000e6
:1010a00028039000b803900078009000e00f5200f1
:1010b000e08f5a00e00f5b00e08f5b0003003d0013
:1010c00080004500d2c2b3000a00370088109000ab
:1010d0000118a3000300320080004500b2c2b30033
:1010e000040037000108a3005900320080004500c9
:1010f00002c2b30082487800530037002860900095
:10110000c2c6b300824f500009003a0011037800b4
:10111000640053008008780010027800900290006c
:101120006033b8000400be000601be0016003700a0
:1011300012c7b300824f500003003a0091027800ba
:101140006880520005003700a2c6b300824f5000ed
:1011500008003a0011037800680053008008780006
:101160009000900020019000b001900010007800e5
:10117000050037001180e900800878001000780031
:101180008000eb006011b800009cbe000294be001d
:101190002862900085c6b300854f52000d003200d2
:1011a00025c6b300854f520004003a000080fb00c2
:1011b0008000eb006011b8000800370045c7b3009d
:1011c000854f520003003200e6c24200854f5200b4
:1011d00004003a008000eb006011b800009cbe00e3
:1011e0000294be00081090000038a30018003200de
:1011f000180078009800900028019000b801900035
:10120000e00f5000e08f5800e00f5900e08f5900c8
:101210000f00320080c7b30080cf540003003200bb
:1012200080c5b30080cf540009003a0078009000d8
:101230008000450002c3b300824878000000e80047
:1012400080004500894878000000e800700498009c
:1012500078009000000545006a04980089407800f5
:101260006d00370028619000c0c4b300804f51006a
:1012700008003a00910378006880530080087800e5
:101280009000900020019000b001900010007800c4
:1012900006003700110178006400510080087800d2
:1012a000900090001000780054050700009cbe00dc
:1012b0000294be00b8009000780090000100e000a9
:1012c00003003d0080004500d2c2b3000a00370091
:1012d000881090000118a300030032008000450030
:1012e000b2c2b300040037000108a30005003200b9
:1012f0008000450002c2b300824878000000e80088
:101300007004980078009000000545006a04980079
:101310008900fb00080078006500070060003700c6
:1013200028619000c3c6b3001180e900834f5100cb
:10133000220032000a003c00e4c15100834f5100fa
:101340002500320083c1e800834f510013003200b2
:10135000e8c15100834f51001e003a000a003700d7
:1013600043c7b300834f51001b003200e6c1410068
:10137000834f510018003200e9c15100834f5100e2
:1013800014003a000500370080087800100078004b
:10139000485c9000084878004100370080087800d9
:1013a00010007800680a9000cfa2de00612bb9001f
:1013b0000498be000690be0039003700800878000f
:1013c0001000780068099000cf91de000288be000e
:1013d000330037001180e9008008780010007800a1
:1013e000680c9000080878002d0037001180e90093
:1013f0008008780010007800cf80de006109b90015
:10140000009cbe000294be007800900000054500dc
:101410006a04980081c7b30008007800b60207008c
:101420001f0037001180e90080087800100578005f
:101430006a049800d80c90000900e00004003d0008
:101440000a0078007c02070080047800070037005b
:10145000090178008000eb000a0078006c020700a8
:101460000000e000010032008a045000190c9800ce
:101470000b0037007800900000054500050037009c
:1014800078009000000545000904e00001003a00e2
:1014900059c2b300094d78000000e80070049800bc
:1014a0000000eb004f0578004f04be00000006006e
:1014b0002f04b000889fbe008a9fbe008c9fbe0094
:1014c0008e1f78000007780081f79f001e047800c7
:1014d0009e0490002e059000be0590005e089000ce
:1014e0000000e00002003d0060002000500f980066
:1014f0008e00780020fb2f000f00400054020700f0
:10150000e20f50000a003a0030002000100f98004f
:10151000b1c9b3000ff0970081404000601a21006c
:10152000e1cf50000d003e00201a21000b003700d3
:101530000000e0000f00340030002000100f980081
:10154000b1c9b3000ff1970081404100e01a2100ba
:10155000e1cf500001003e00a01a2100ee009000f3
:10156000b0487800b068780010407800904098004b
:10157000f70037000000e00005003a0022fb2f00d2
:101580000f014100001978008001eb00eb003700eb
:101590006022b8006033b8000800be000a01be0037
:1015a000de0307000000e00001003d000bf0a20098
:1015b000705927009f9897000088b900026a280098
:1015c0001300200039040700640650009c9f9f0010
:1015d00015003b0063061600c0ff2f0000066600e2
:1015e0008c01ea00939f9f002d1b21000800be0084
:1015f0000a01be00090037000c08a30005003200f4
:101600001d0278009d0290002d039000bd03900004
:10161000dd0407000c86d100e88646000c00e000df
:10162000f5ff3c001a0037000c00e0001a00320001
:10163000c0ff2f00000666009c9f9f002d1b21000d
:101640006000b8000200200003ff230009003700fb
:101650000c08a300050032001d0278009d029000d6
:101660002d039000bd039000c70407000c86d10035
:10167000e88646000c00e000f5ff3c000002be00da
:101680000203be000800be000a01be00ad03070051
:101690000004be000205be00de08900060c6b30074
:1016a0000ff29700804f52000400320060002000cb
:1016b00062c4b300824f520002003a009f9a970022
:1016c0006a80420081004000f1b79f00010378006a
:1016d000f30f53000200340037012000f7b79f00da
:1016e00000c3b300c0779f0056fb2f000f034300d9
:1016f0000e007800a0b79f00060778003d00370075
:101700000800be000a01be005b0407000006be0020
:101710007fb1970068015100f2b79f004240a900d5
:101720000c003400800407000002be000203be006b
:101730000800be000a01be00090507006022b800cb
:1017400046782d00771924008f0407000004be009e
:101750000205be00e80047008e0020000802be001f
:101760000a03be00b4b79f00c5b79f00d6b79f005d
:10177000e7b79f000c01be00010478000c003700a1
:10178000a400200005002000c0fd2f000f00400035
:101790008a0107006fa89700ffa897000fb1970074
:1017a0009fb1970005c3b300056441000001be006e
:1017b000e00f5100e08f5900030034000e07e900ec
:1017c000e10f4700eeff3a00880078003fb4970031
:1017d000cfb497005fb59700efb5970002003700d0
:1017e00000c3b300806078000e07e900fcff3b00f7
:1017f000688740007fb397000600e00007003400d0
:101800006022b8006033b8000800be000a01be00c4
:10181000470307000000e000b9ff3c000e0378001a
:101820002fb7970051fb2f008f804000010353001a
:101830009f9b970067804300909f9f0002003700a6
:101840000603e9000000e900010178008200780049
:1018500003c3b300b1cf1100f9ff3200909f9f0086
:10186000de09900061c6b3000ff29700814f52006d
:101870000300320061c4b300814f520002003a00fd
:101880000000e8000a0037001000200051c6b30035
:101890008ff2970081cf520005003200054078009a
:1018a00050c4b2000080fb000000e9004f00de00e1
:1018b00083014000868f51000100340086017800ca
:1018c0000300e0001d00350000c3b300868f510007
:1018d00006003d00030241006940400041c3b300df
:1018e00094cf100001003c00694050008300e900e3
:1018f0008100410001003700840178000302e90003
:1019000001037800a142780080cf5200faff320034
:1019100091c3b300814f500001003a00054be8002d
:101920000400e00005003d000201e9008301e80039
:101930001f9b97000603e800969f9f008ff3970078
:101940008700fb001f9a97000e0078000600070032
:101950004f0778004f06be004f05be004f04be0083
:101960002f04b10000000600f0874700889fbe00ea
:101970008a9fbe008c9fbe008e1f780000047800f6
:10198000814478000205be00040678000b00e000e8
:1019900002003c001b0020006a25210060c6b30045
:1019a00080cf54000e00320060c4b30080cf5400da
:1019b0000b00320070c6b30080cf54000300320029
:1019c00070c4b30080cf540085003a00e40f460095
:1019d0008300350058089000800f560080003d00bd
:1019e0000c06e80060c6b30080cf5400100032003f
:1019f00060c4b30080cf54000d0032000810900086
:101a00000038a30004003a0058089000808f550069
:101a100001003d005b0c9800580890000c0050003d
:101a2000500c980002003b000000eb00500c9800a6
:101a300098089000680090000c00e00028003c002e
:101a40000100400002c3b300024878008100e800b2
:101a5000110c9800580890000000e00003003c00c2
:101a6000081090000038a3000600320068009000c3
:101a700001004000e2c2b300024878008100e800a3
:101a8000110c9800580890008c00ea00810f50005b
:101a900001003d000006ea008c00ea00210c9800dd
:101aa000000646005c0c98008b0f560001003400c5
:101ab0000b0678003c0c9800e80090001808900095
:101ac000008040000c0178008a00780023fc0700a9
:101ad000580890000c0650004c0c980094003700f9
:101ae0008c8f550019003d00010040000b0178006b
:101af0008a00780019fc0700180890000080450053
:101b0000100c98008b0556002b0c9800d8089000fc
:101b10000100e00003003c00881090000138a300a1
:101b200007003200e800900000804000e1c2b300ee
:101b300001487800380890000000e800300c980058
:101b400058089000400c98007900370001004000d0
:101b50000c0178008a00780000fc0700180890004b
:101b600000004600100c98008c855500d8089000a5
:101b70000100e00003003c00881090000138a30041
:101b800006003200e800900080804000e2c2b3000e
:101b9000824878000000e800100c98005808900077
:101ba000808f55000100340080057800e800900027
:101bb00018089000008040008c0045000b01780060
:101bc000e6fb0700180890000b004000100c98007e
:101bd000580890008b0550002b0c980054003700db
:101be00018089000e8009000808040009a48780033
:101bf0000000e800100c9800d80890000100e000f8
:101c000003003c00881090000138a3000600320059
:101c1000e800900080804000e2c2b3008248780073
:101c20000000e800100c9800580890000000e00048
:101c3000100034008b05e900808f5500010034004e
:101c400080057800e80090001808900000804000af
:101c50008a00e8000b017800c0fb0700180890001c
:101c60000b004000100c9800580890008b055000a5
:101c70002b0c9800e80090001808900000804000ad
:101c8000095878000007e8000c00e0000400350067
:101c9000b1c2b300014878008e0478000400370018
:101ca000d1c2b300014878008e0478000c06ea0027
:101cb0007d8557008006eb0009003700a200200058
:101cc0008c00780072805700310007007fb09700c9
:101cd0008fb89700016d7800000678008d06e80047
:101ce0000c00e000f5ff3c000d00e00009003a00a8
:101cf0008e04780000c3b300805c780005003700d4
:101d00008d06e900fc8057000d80400001c3b30040
:101d100090dc40000d00e000f9ff3c00e80090007e
:101d2000180890000080400080845400390c98000e
:101d30000810900074006000f00f50000e003a0090
:101d4000980890007800900000804000a80890005b
:101d500001004000b808900001004000c808900051
:101d600001004000f8089000810f500002003d0083
:101d700000805000000c98004f0778004f06be000e
:101d80004f05be004f04be000f01b1000000060069
:101d90008002780001037800110009000203d800d6
:101da00080017800830a78008299b900820053008c
:101db000910298000500780000000600881f780056
:101dc0008a9fbe008c9fbe00000478000205be0002
:101dd0000406be000401be000a00be003302070074
:101de000008cbe000c01be00720307000005550008
:101df00081855d002a0498003b0498000800780063
:101e00004f06be004f05be004f04780000000600dc
:101e100003003700b0cf1000050032000201e900d6
:101e2000800178000200e000faff3a00000005009f
:101e300003007800000006008000780001017800af
:101e40003104e000fdff3a000000510000000600f0
:101e5000889fbe0000047800e68440001900d0008e
:101e60004500de00f27f2000820f500010003a0093
:101e7000000ceb00990478006f81640020002000c2
:101e80001b003a00210190000200e00018003a0017
:101e9000110190000200e00015003a00100020003f
:101ea0001100e00012003200200020001000370076
:101eb0000000e00004003a00010078004b01070038
:101ec0000000e00008003c00f20028001901610059
:101ed00001fe2300810c710021c02f00010c400085
:101ee0000080eb0002003700000ceb000000eb006c
:101ef0004f04be0000000600fc874700889fbe001c
:101f00008a9fbe008c9fbe008e1f7800000678005e
:101f100080c5b30080cf50000a00320077404000f7
:101f200080cf50000a0032006940400080cf50004e
:101f30000b003200b020210080bf9f00ae002000c7
:101f40000a003700a21f210082bf9f000600370051
:101f5000b320210083bf9f008e00200003003700c4
:101f6000b420210084bf9f000e0120001c027800d5
:101f70009c0290002c039000bc0390000605be005c
:101f80000404be0040c6b30080cf500003003200fe
:101f90006540400080cf50000b003a00e00f520037
:101fa000e08f5a00e00f5b00e08f5b0006003d0011
:101fb0006000b8006011b800040450008584580027
:101fc0000605590087855900e80f570004003200c4
:101fd00040002000f00f57003c003a00010037009d
:101fe00030002000e00f5400e08f5c00e00f5d0047
:101ff000e08f5d0004003a00dc0890008d012000b5
:102000000100e000070032008e00e90088806000d7
:102010008fba97008180420091407800f1ef9f00d5
:102020007d012000800078008100e9000500330078
:102030008b05d1000a85d3008984d3000884d3009e
:10204000f9ff3700089ebe000a96be001300370055
:102050008d06e9008e00e900848060000fb99700ca
:10206000810041001141780083fd2f008d814100e6
:1020700082f77900800178008301e90005003300d0
:102080008783d1000683d3008582d3000482d300e6
:10209000f9ff3700049ebe000696be001c027800c1
:1020a0009c0290002c039000bc039000e00f5200b3
:1020b000e08f5a00e00f5b00e08f5b00930034007c
:1020c0000d00e000e2ff3c00900037002c60900023
:1020d00081c6b300814f50000b00320006003c0067
:1020e0000004e00008003200e6c05000814f5000bc
:1020f00052003a0004003700c1c6b300814f5000bf
:102100004e003a00230037000800e00004003a00c7
:102110005c0890008d0120000000e0000700320004
:10212000110009000e84d8000fba97000100420088
:1021300010407800f0ef9f007d01200011000900a1
:102140000e84d8000b003700110009000e04d800df
:102150008d06e9008e81b900020454008fb8970003
:10216000088440009841780082fd2f000d01410055
:1021700083777900000478000800e0000200320054
:102180000d00e000f0ff3c00cfc4de00614db9005f
:1021900027003700e00f5400e08f5c0004003a0095
:1021a0005c0890008d0120000000e0000800320073
:1021b0006171b9000800be007b0207000fba9700ea
:1021c0008000420091407800f1ef9f007d012000e7
:1021d0006171b9000800be00630207000c003700ff
:1021e0006171b9000800be00300107008d06e900ea
:1021f00080f1b900020454008fba970008844200ad
:102200009841780082fd2f000d014100837779000d
:102210000004be00e00f5000e08f580002003200c2
:102220000d00e000eeff3c004fcdde008a05780097
:10223000089ebe000a96be0034003700e00f54002e
:10224000e08f5c00e00f5d00e08f5d0004003a006d
:102250005c0890008d0120000000e0000a003200c0
:102260006172b900612bb9000800be000a01be000e
:10227000f80207000fba97008000420091407800f2
:10228000f1ef9f007d0120006172b900612bb90060
:102290000800be000a01be00e70207000e0037007a
:1022a0006172b900612bb9000800be000a01be00ce
:1022b000ec0207008d06e90080f2b9000404540026
:1022c0008fba9700088442009842780084fd2f005e
:1022d0000d02420085777a00009ebe000296be0085
:1022e0001c0478009c0490002c059000bc05900014
:1022f000e00f5400e08f5c00e00f5d00e08f5d00b8
:10230000020034000d00e000e5ff3c00e80f57003c
:1023100010003a000c1090000038a3000d003200ad
:10232000f78f560006003e0080fd2f000d00400094
:10233000ef40780000c3b30080cf500005003200aa
:1023400002c3b30071fd2f008d8040008d06e900af
:1023500082f7780078811600120e98006c009000c9
:1023600083fd2f008f8141008d804100fbf9070024
:102370001c089000dc089000810f500006003d0012
:1023800000805000000e98000c1090000040a1004a
:10239000001698000f0037000100e0000d003d001e
:1023a0008c109000f4806000f08f500009003a001b
:1023b0007c099000fc009000810051000c09900005
:1023c00082805000008050004240a900010034008b
:1023d000000e98004f0778004f06be004f05be0064
:1023e0004f04be00cf01b10000000600e60040002f
:1023f0001101780005002800850261006f0161006d
:10240000820878000200320012002000110037001c
:10241000a0019000120020000300e0000d003a002f
:10242000900190000300e0000a003a001000e00074
:1024300008003a0036003700640340009608780030
:1024400080017800530b7800900978000408780028
:1024500070015100110278000400e000f6ff320024
:102460001300370064024000140378004f33de008d
:10247000838141008308730080017800d3037800d2
:10248000cf3bde001403780006034300068a730086
:102490001302780004024200100378004f33de007c
:1024a0008609720090017800038841000201e9006a
:1024b00091017800ef8f5100eaff360010003700dd
:1024c00080017800530378004f33dd001002d10003
:1024d000040873006402400094037800cf3bdd00e1
:1024e0001303d10086897300110378004f33dd0098
:1024f0009401d100030a73009108d1000201e800a1
:1025000091017800ff8f5100edff3e00ef886100e0
:102510009188720002007800000006008f1fd10031
:102520002d0307008f87e9000000e000000006008f
:10253000809feb00280307008f87e9000000e00080
:10254000000006002800fa00889fbe008a9fbe0097
:102550008c9fbe0003866b008f0007006400e100c3
:10256000440032006408e1004a0032006100e100ea
:10257000460032006108e10049003200ec064700e5
:102580006000b8003d02be003d03be00f486570067
:102590006011b8003d04be003d05be007d03200073
:1025a0000b0037000000a0008d06e9001300320088
:1025b0000402420085824a0006034b0087834b00d9
:1025c00000004000818048000201490083814900e9
:1025d0000802520089825a000a035b008b835b0069
:1025e000f0ff3b000802420089824a000a034b00c8
:1025f0008b834b008d06e900edff3a008482720068
:1026000086827200f707b2008782720001003200f2
:10261000150020001e0490003e0b9000060354009d
:10262000e63fb0000368a300070032000000a700e7
:102630000500a0008301d1000281d3008180d30076
:102640000080d3000603e8008301d1000281d3009b
:102650008180d3000080d3000002eb000482d2000e
:102660002100070003f0a1000cf0a70003f0a00078
:102670005d003700640247006408e1005700320043
:102680003400be003401be00f6ff37006108e100ef
:10269000520032006011b8006000b800f1ff37004e
:1026a00003ff270002002000fbff3700839f680024
:1026b0000100e00002003d0060001000e080180012
:1026c0000300e00002003d0060011100e0811900fc
:1026d000250107004f00e00002003b0060001000f1
:1026e000e0801800000006001800200057002000bd
:1026f000080453000d003d000600200097fc2f0049
:102700000740e1001e003400848272006102600014
:102710008301d1000281d3008180d3000080d300e7
:102720000804e800f8ff3a00470020006104600058
:1027300005047400040464000d00320061004000d0
:10274000e080480060014900e081490003b8a5002d
:10275000070032000603e8006538e10004003a0093
:102760008301d1000281d3008180d3000080d30097
:10277000f87f20000830e1000300350008037800ee
:102780006000b8006011b8004433dd00f300b2000f
:102790008301730000000600680447000294be0035
:1027a0000094be00fc0447008694be008494be00e2
:1027b00009007800d202070008007800d002070064
:1027c00099007800814f70000b003b000800be00ac
:1027d000aa0207004f00b10003003700f3ff2700f3
:1027e000f2ff2f006110b9004f06be004f05be007a
:1027f0004f04be000080fa0000000600810378004c
:102800004c0007000001be006000b8000478a3007f
:1028100013003a006220e10015003e000d0039006f
:102820008301d1000281d3008180d3008301d100d4
:102830000281d3008180d3008301d1000281d300c3
:102840008180d3000538b000c42add00f300b20057
:102850008381720007f0a70003f0a00000000600cb
:10286000f3ff2700f2ff2f006110b900fbff3700d4
:1028700003ff2700f7ff37001400fa00889fbe000f
:102880008a9fbe008c9fbe000004be000205be00f1
:10289000680047000a90be000890be00980207003a
:1028a0000070a7000bf0a100304320009e029000b2
:1028b00080825200b0fe2f000028e10011003d0090
:1028c000b0fc2f000028e100150034001e09900024
:1028d0008e0890007e0090000501b0000201d1003a
:1028e0008180d3000080d3008502e800fbff3a001e
:1028f0000b00e000bcff3b0060001000e08018000f
:10290000b9ff3700f0ff2f00f1ff27000b00e000b8
:10291000b5ff3b000100280000002000b2ff370097
:102920006000b800b0ff37004f89de0082017800f8
:102930009a023700c70ade00f107b200f50fb200b5
:1029400008003200e1cf4200020032000170a00016
:1029500024000500810f700001003200040805000a
:1029600044000500810f700002003a0014000500c9
:102970008502e9000000400081c04800fcff3b00e8
:102980000170a000240005002800fa00889fbe0006
:102990008a9fbe008c9fbe0003866b007eff0700ef
:1029a0000028a30064003a000128a30068003a0050
:1029b0000008a30062003a000108a30066003a0084
:1029c0001e009000be08900081064000ed3fb1005f
:1029d000f4805700ee019000111ab8008e099000a3
:1029e000311bb8009e099000311cb800511db80081
:1029f000f485570046000700fe0190003a000700ea
:102a00008b85e8003e0007008e099000400007001b
:102a1000ee019000340007008b85e80038000700c5
:102a20008e099000400007009e0990001b18b80016
:102a3000890440000a854800fe0190003400070028
:102a40008b85e80038000700ee0190003000070099
:102a50008e0990001b18b800890440000a854800c0
:102a60000a98a30008003a000402420085824a0046
:102a700006034b0087834b0008044c0089844c00fc
:102a80000a054d008d06e9008482720085027300fc
:102a90004c3add0085027200010032001500200072
:102aa000443ade001400b2004538de00cb45dd00bc
:102ab0000b007000c540de00cb4ddd008b80700048
:102ac0004549de00cb55dd000b017100c551de002c
:102ad0000d03780004ff070003f0a1000cf0a7002d
:102ae00003f0a00040ff37001b18b800850240002b
:102af00006834800e0834b0060044c000700370069
:102b00001b18b8000603400087834800faff37000f
:102b10001b18b8008703400008844800e0844c007c
:102b200060054d00000006001b18b80008044000b6
:102b300089844800faff37000108a30027ff3a0004
:102b40005800be00000000005801be00e2ff370040
:102b50000008a30021ff3a0009047800f8ff3700bd
:102b600007f0a2001e0137006022b8000602200014
:102b70000000d0008180d2000482d2008582d20081
:102b80000000a0000202520083825a0003003100bc
:102b90000202420083824a000000a1000603e9000d
:102ba000f3ff3a0000000600efff07000400be003c
:102bb00000000600020ab900001bb9000200b800bc
:102bc000810042008100430000000600889fbe0093
:102bd0008a9fbe0030044200b0844a0030054b009a
:102be00090854b006000b1000898be000a90be00be
:102bf0000440e10005c8e10006d0e10007d8e1008b
:102c000002003100680040001008e8004f05be00d7
:102c10004f04be0000000600889fbe008a9fbe00d1
:102c2000100478009004900020059000b0059000fa
:102c30000418540005985c0006185d0007985d00b4
:102c4000110020000440e10005c8e10006d0e100c9
:102c500007d8e100010039008000eb001088100067
:102c60004f05be004f04be00000006001200fa002f
:102c7000889fbe008a9fbe008c9fbe00e0b79f0069
:102c8000f1b79f0082bf9f0093bf9f000605be0063
:102c90000404be000000eb00d0b79f00c0b79f0047
:102ca000b0b79f00a0b79f0090b79f000006eb0051
:102cb0005fb19700cfb09700820141003fb097000d
:102cc0000200e00004003d00370007007e8057004e
:102cd000beff070003003700330007007e80570067
:102ce000cdff0700dfb697000d00e0000c003500b7
:102cf0006fb29700ffb297000fbb97009fbb970082
:102d000010002000010020006011b80000027200d5
:102d10008182720002037300838373001b0007002b
:102d20000c06e80001042000810f5600e0ff3a0085
:102d30000d00e00004003d000802be000a03be00d2
:102d40007e805700a1ff07005fa897000000e00009
:102d500005003a001fb29700afb297003fb397004b
:102d6000cfb39700090007006fb09700ffb097003e
:102d70000fb997009fb997004f06be004f05be00e0
:102d80004f04be000080fa000000060001000700aa
:102d900000000600a4b79f00b5b79f00c6b79f000c
:102da000d7b79f00000006004f09de008281710046
:102db000b3b79f004f01de00818040008280700029
:102dc000a1b79f008fb097004f09de0000004000c0
:102dd0000200700090b79f007fa897004f01de00af
:102de000818040008280700081b79f000d00070045
:102df0004f3ade000000400004007000f0af9f007a
:102e0000080007000402420085824a0006034b00c6
:102e100087834b00dfff07000802be000a03be00e5
:102e2000000006002fb29700bfb297004fb3970083
:102e3000dfb3970000000600881f7800180020000c
:102e4000881f780089ff07008f87e9004f0478000a
:102e500000000600801feb0084ff07008f87e90059
:102e600000000600889fbe008a9fbe00e00f500051
:102e7000e08f5800e00f5900e08f59000c003d0032
:102e80006044b8006055b8000000540081805c00c8
:102e900002015d0083815d0018002000150007001d
:102ea00008003d00180007000004eb000500370093
:102eb0000004eb000f00070002003d0012000700b5
:102ec00018002000dcff07000800e00006003200c8
:102ed0006022b8006033b8000000520081805a00c0
:102ee00002015b0083815b004f05be004f04be0002
:102ef00000000600e00f5200e08f5a00e00f5b0078
:102f0000e08f5b00000006006044b8006055b80028
:102f10000402540085825c0006035d0087835d0027
:102f200000000600889fbe008a9fbe008c1f7800ac
:102f3000e00f5000e08f5800e00f5900e08f59007b
:102f40000d003d006044b8006055b800000054001a
:102f500081805c0002015d0083815d001c00200017
:102f60000820e10009a8e1000ab0e1000bb8e10087
:102f70000d003d00080037000006eb00e00f520096
:102f8000e08f5a00e00f5b00e08f5b0006003d0021
:102f90006044b8006055b8000402540085825c00ab
:102fa00006035d0087835d00aaff07000c00e000b8
:102fb000060032006022b8006033b8000000520002
:102fc00081805a0002015b0083815b004f0678001c
:102fd0004f05be004f04be000000060000000000c8
:102fe0002800fa00889fbe008a9fbe008c9fbe000a
:102ff00007067800878669000c003b000304780010
:103000008704780008f0a10009f0a100840f5000a7
:10301000858f5800860f5900890f5c00030033002c
:103020000cf0a20001003a000cf0a100dafd07004c
:103030006400e1005f003200780147006408e100ad
:10304000610032006c014700748557003200be00f9
:103050001201be003a04be001a05be001e03900015
:10306000be0a90008503530006003d000004fd00e9
:103070008104fd000205fd008305fd008703ea00d1
:10308000050378000df8a30004003200600414006a
:10309000e0841c0060051d00e0851d006022b80072
:1030a0007d0320000d38e1008006eb000b003900a5
:1030b0004433dd00f300b2008301730039003700b0
:1030c000848272000d027800e10664008b85d100d5
:1030d0000a85d3008984d3000884d3008703e900dc
:1030e000f7ff3b0008004000898048000a014900c2
:1030f0008b81490004003b0060001000e080180054
:1031000060011900e08119000358a3000900320092
:103110008d82720084827200610260008301d1009e
:103120000281d3008180d3000080d3000603e80031
:103130001b0037000348a30017003a000600e00018
:10314000170034000603e9000d00a300000048004a
:103150008180480002014900838149000348a3009f
:103160000f003a000600e000090034000603e90001
:10317000000040008180480002014900838149002d
:1031800001003a000003eb000348a300f5ff320002
:103190006022b800020037008482720061826600fb
:1031a00051fd070003f0a1000cf0a70003f0a00000
:1031b0008dfd3700640147006408e10002003a0019
:1031c0000df8a30085fd3a0032007800b2007800c7
:1031d0001201be0084fd3700889fbe008a9fbe009a
:1031e0008c9fbe000404be000605be00809fbe008a
:1031f000829fbe0030000700040678000800be0071
:103200000a01be002c000700840678004f03be00b0
:103210004f02be008d4f76007fb097001300330041
:10322000f0ff2f008b8f6b0006003b000d06660041
:103230000c00a7000a00370007f0a60010002000cd
:103240000a003700880f5200898f5a008a0f5b00ee
:103250008b8f5b00030039001000200001003e004e
:103260000000200007f0a7000000ea004f06be00a3
:103270004f05be004f04be0000000600e48240007f
:103280001078a30007003200640240001178a30008
:103290003400be001401be00050032000330a70058
:1032a0000000060035007800b50078001501be006a
:1032b0000330a0000000060005ff27000582610022
:1032c000070032000428e10001003200240005005c
:1032d0000600070001003a0044000500040805004c
:1032e00002000700f9ff3a00140005006f82610038
:1032f00081027000850271008502720000000600e4
:103300005002be00e40050005003be004439de000d
:10331000f700b200f37f20000301610009003200d2
:103320000218e10016003a00850172008301730063
:10333000838173000008200015003a00400020003f
:1033400013003700850172008301730083817300cd
:1033500005003a0004a8be0006a8be001000200028
:103360000b0037000201e9000402420085824a0096
:1033700006034b0087834b000748a300f9ff320088
:103380000740a00004a8be0006a8be002000200040
:10339000800098009200980000000600881f7800c6
:1033a000030478000300e00007003d006000100007
:1033b000e080180060011900e081190002003b0064
:1033c00001f02d00030037000400070008f0a700fb
:1033d00003f0a0004f04780000000600889fbe00a4
:1033e0000082700004027100048271002400320027
:1033f00036432000c50020008383cf000a00390037
:103400000541b1008283cf00070039000541b100ba
:103410008183cf00040039000541b1008083cf00d3
:10342000010039000541b10085c353006022b80096
:10343000120032000a003b008482720061026000c8
:103440008301d1000281d3008180d3000080d300aa
:103450000603e8008743e800f7ff3a00070037005b
:10346000000040008180480002014900838149003a
:103470000603e9008743e900f9ff3a009afc0700d8
:083480004f04be00000006002d
:020000040000fa
:103488007b750000626900006361000063690000e9
:103498006f6e00003a2000005b2500002e3200000d
:1034a800662c0000202500002e320000665d00001a
:1034b8002c200000546500006d700000657200004b
:1034c8006174000075720000613a0000205b000022
:1034d800252e0000336600002c200000252e000059
:1034e800336600002c200000252e00003366000003
:1034f8002c200000252e0000336600005d2c000003
:10350800207200006576000065720000736100009b
:103518003a200000257500002c200000747200007d
:10352800616d0000613a0000202200002573000050
:10353800227d0000000000009a990000993f0000d9
:10354800cdcc00004c4000009a990000a940000032
:08355800cdcc0000344100005d
:020000040000fa
:103560000400fa00100798000040eb00004f7800bc
:103570001e80fb009e00900000804000904078007c
:1035800011479800010037001e4fe8001e80fb0025
:103590009e00900000804000104078000004e00091
:1035a000f9ff3a001e4078000080fa000000060093
:1035b0001400fa00889fbe008a9fbe008c9fbe0048
:1035c000009fbe000297be00440798009e0078004e
:1035d000510798002e4090008086fb003e0090002e
:1035e0006c00400010057800900590003e009000af
:1035f0006800400010047800900490003e009000a5
:103600006400400010037800900390003e0090009a
:1036100010027800900290002e009000640040009c
:103620001001780090019000020f9800130f98008d
:103630002e00900010017800900190006207980021
:10364000730798004e069000de019000831f7800fb
:103650008d1f78008a9fbe00889fbe00869fbe0097
:10366000849fbe000e0990009e099000829fbe00bc
:103670006e019000fe019000829fbe0040a42900d0
:10368000801f78000c00780073f40700fe87570055
:103690004f06be004f05be004f04be000080fa007a
:1036a000000006007800fa00881f78000004780007
:1036b000313f98000040eb00004f78000040eb00e5
:1036c00010479800e40047001d0009008018eb0037
:1036d0000040eb00204798000e0278000404b00080
:1036e00006000900001aeb00005aeb008e02780079
:1036f000f504b0001d000900805aeb00f104200021
:103700008e804000640047003e399000360007007c
:10371000270037001e80fb00640040006e407800e8
:103720000004e0000b0032001e4090000080fb000f
:103730009e80fb00e4804000eec078000004b000f2
:10374000017778001e4090000040e8001047980084
:10375000160037000040eb001047980000042000de
:103760000e0040008c000700304798003e4090005b
:103770000080fb00e10f500009003200e10f500013
:1037800009003c000000e00008003a001e389000ec
:10379000f10420008e804000f7000700030037008e
:1037a0000000000001003700000000001e4fe8008c
:1037b0002e4090000080fb00e10f4000d5ff3a0052
:1037c0007e3290008e3a90001e3b9000ae3b9000ff
:1037d000049cbe000694be00080078004f047800e8
:1037e0000080fa00000006000c00fa003007980084
:1037f00041079800520798005e00900058ff0700ac
:10380000404798000040eb00104798000040eb0054
:10381000204798000040eb003047980010c0b300ec
:10382000004f7800540037001e80fb00de0090003f
:1038300000804000104078000080fb00a1032000c1
:10384000810f500011003200a1032000810f5000b1
:1038500007003c0001022000810f500040003200b0
:10386000c1022000810f5000140032001f003700f9
:10387000b1052000810f50003b003200d10520002f
:10388000810f50003a003200180037001e409000af
:103890000080fb00be009000008040008040eb00f4
:1038a000014878001e4090000040e8001047980052
:1038b00010c0b300304798002e0037002e40900013
:1038c0000080fb00ce00900000804000d1c2b30019
:1038d000014878002e4090000040e8002047980002
:1038e0000040eb0030479800220037003e40900037
:1038f0000004e0000d0032002e4090000080fb002c
:10390000ce009000008040009e80fb005e01900091
:103910008100410091407800014878002e409000dd
:103920000040e80020479800120037001e40900039
:103930000080fb00be009000008040009e80fb00e5
:103940005e019000810041009140780001487800bc
:103950001e4090000040e800104798000500370026
:1039600000000000030037000000000001003700e5
:10397000000000001e4fe8009e80fb004e409000bb
:103980000080fb000000e900808f5000a6ff35009a
:103990000080fa00000006000400fa0010079800fa
:1039a00040c0b300004f78000040eb001047980083
:1039b0001e009000104078000080fb0021072000ce
:1039c000810f50002100320021072000810f50009c
:1039d00004003c0041052000810f5000110032001e
:1039e0003500370041072000810f500021003200d0
:1039f00051072000810f50002f003a00e1f6260009
:103a00001e0090002f000700104798001e409000f5
:103a1000e14f500021003a000040eb00004f7800d9
:103a200025003700112627001e0090002500070002
:103a3000104798001e409000e14f500019003a00d6
:103a400010c0b300004f78001b003700113627006c
:103a50001e0090001b000700104798001e409000b9
:103a6000e14f500011003a0020c0b300004f780031
:103a70001100370011d626001e009000110007002b
:103a8000104798001e409000e14f500009003a0096
:103a900030c0b300004f780007003700000000007e
:103aa00005003700000000000300370000000000a0
:103ab00001003700000000001e4078000080fa007e
:103ac000000006000800fa0020079800310798005f
:103ad0002e009000a2fe0700204798003e009000b4
:103ae0009ffe0700304798000040eb00004f780031
:103af000ae4090003e40900080cf50001b003a0046
:103b000010c0b300004f78000040eb001047980051
:103b1000120037001e4090000080fb00ae009000b5
:103b200000804000904078001e4090000080fb0024
:103b30003e019000000041001040780080cf50000e
:103b4000030032000040eb00004f78000700370010
:103b50001e4090000040e800104798009e409000f2
:103b60002e40900080cf5000eaff39001e407800c0
:103b70000080fa00000006005800fa00202f98008c
:103b8000312f9800e40047001d0009008018eb0069
:103b90000040eb00004f78000040eb001047980019
:103ba0000040eb00204798003e2890006cfe070084
:103bb000304798008e0078000104b0000200090030
:103bc0008018eb008e0078006104b000020009004c
:103bd0008018eb006000b8006027980071279800fb
:103be0006000b800002f9800112f98003b003700ac
:103bf0002e4090000080fb00e10f500019003200c1
:103c0000e20f50002c0032000000e00032003a00c9
:103c10001e80fb00be28900000804000904078008d
:103c2000d0c2b30080cf500002003a001e4fe8001f
:103c3000290037001e4090000080fb009e80fb00a2
:103c40003e29900081004100914078000004b000be
:103c5000017778001e4090000040e800104798006f
:103c60001d0037001e80fb00be2890000080400031
:103c700090407800d0c2b30080cf500002003a00dc
:103c80001e4fe800140037001e4090000080fb002b
:103c90009e80fb003e299000810041009140780009
:103ca0006004b000017778001e4090000040e800fa
:103cb00010479800080037001e80fb009e80fb0024
:103cc0003e2990008100410091407800640040004e
:103cd00001777800000000001e4fe8003e40900091
:103ce0009e40780080cf5000c1ff390000042000c2
:103cf0000e0040000b000700602798007127980015
:103d0000600420000e00400006000700002f98000d
:103d1000112f980064004700302f98000080fa00af
:103d2000000006000200fa00000f78006000b800f2
:103d30000080fa0000000600c600fa000503070034
:103d40004a000900001feb006e09b10080f4240056
:103d5000c1142400308f9800418f98006000b80093
:103d6000508f9800618f98008e007800e109b000b4
:103d7000020009008018eb008058eb00620a200066
:103d80000201470001aa2900070009003119780043
:103d90000000200081142400309f9800419f98006b
:103da0000000200061202400509f9800619f98002f
:103db00010c0b30000c79900600920000e00400049
:103dc000709f9800600a20000e00400020a7980015
:103dd000600b20000e00400010a798000e02780033
:103de0007e9890008ea090001ea19000aea1900041
:103df000effd07000e007800d9fd07000080fb00f2
:103e0000800078000e007800ee000700ffff37000a
:103e10000000fa002188a9002168a9008000200084
:103e2000001188002222ef00500c20004011880071
:103e300000012100308088000001210020808800de
:103e4000900d210010808800900d210000808800d6
:103e50000870ef0040f521000700070020f721005f
:103e6000140007002168a80021e2a8002342a8004e
:103e70000080fa00000006000200fa00000f78003f
:103e80001e0078000000e00003003a0040f5210029
:103e900050808800020037001e00780050808800a3
:103ea0000080fa00000006000000fa000080fa001e
:103eb000000006000200fa00000f78001e007800e3
:103ec0000000e00003003a0020f721006080880035
:103ed000020037001e007800608088000080fa0031
:103ee000000006000000fa000080fa000000060052
:103ef0000200fa000040eb00004f780000000000d4
:103f00001180800000808000808f5000fcff320014
:103f100010808000104f7800108080000000e800c2
:103f20001080880011808000201a2100808f5000ae
:103f300002003a00900d2100108088001e40780099
:103f40000080fa00000006000200fa00004f78002e
:103f5000000000001c0007000004a2000004e000b4
:103f6000fcff3a00208080001e48780020808000fe
:103f70000000e8002080880021808000900d210052
:103f8000808f500002003a0000012100208088004c
:103f90002188a8000080fa00000006000000fa0056
:103fa00011808000008080000080680000f0a70081
:103fb0000000ea000000ea004f00de000040780048
:103fc0000080fa00000006000400fa003180800042
:103fd00011079800218080001e009000808f500003
:103fe000060031009e00900020808000008050007c
:103ff0000000e900000f7800050037009e009000e7
:104000002080800000805000800cb000000f7800fd
:104010001e00780000f0a7000000ea000000ea009f
:104020004f00de00004078000080fa00000006002b
:104030000000fa002180800030808000808f5000d6
:1040400009003a001111800000102000008060007b
:1040500000f0a7000000ea000000ea004f00de00c8
:1040600000407800010037000040eb000080fa00bb
:10407000000006000400fa0001808000110798008b
:10408000108080009e009000808f5000060031005c
:104090009e0090001080800000805000900cb000c6
:1040a000000f7800040037009e0090001080800010
:1040b00000805000000f7800f00f20009e00780074
:1040c000808f50000200360000c0eb000200370075
:1040d0001e007800004078000080fa000000060012
:1040e0000400fa00318080001107980021808000d0
:1040f0001e009000808f5000060031009e0090004e
:1041000020808000008050000000e900000f78004f
:10411000050037009e009000208080000080500045
:10412000800cb000000f7800f00f20009e00780097
:10413000808f50000200360000c0eb000200370004
:104140001e007800004078000080fa0000000600a1
:104150000800fa002007980031079800c5ff070003
:104160000080fb00000f78003e0090009e0f500082
:1041700002003100be009000010f78000000eb004b
:10418000100798000900370059ff0700ae009000a3
:10419000804878002e0090000000e800200798007a
:1041a0001e0090000000e800100798001e0090001c
:1041b0009e0f5000f4ff39001e0078000080fa00c6
:1041c000000006000800fa00200798003107980058
:1041d000c3ff07000080fb00000f78003e00900046
:1041e0009e0f500002003100be009000010f7800c9
:1041f0000000eb0010079800090037002e00900027
:1042000010407800ae0090008100e800210798007f
:104210004dff07001e0090000000e8001007980006
:104220001e0090009e0f5000f4ff39001e00780021
:104230000080fa00000006000400fa000000eb0015
:10424000000f78008bff070020479800a4ff0700ad
:10425000304798002e4090000080fb000000e000f6
:1042600004003200910c2000810f50000300320046
:10427000040037001e20a000040037001e00a0002c
:10428000020037001e10a000000000003e40900019
:104290000080fb000000e00004003200910c2000d0
:1042a000810f500003003200040037001e30a000d0
:1042b000020037001e40a000000000001e00780031
:1042c0000080fa00000006000400fa0010079800c1
:1042d000118080001e009000008f40000200370017
:1042e00071f32f001e8f4000201a21009e007800dd
:1042f000808f5000faff3e001e00780010407800ca
:104300000080fa00000006000000fa0059ff0700d4
:104310000080fb000000e9004f00de000040780054
:104320000080fa00000006000000fa006cff0700a1
:104330000080fb000000e9004f00de000040780034
:104340000080fa00000006000000fa001011800052
:104350000080fa00000006000000fa0060ff07007d
:104360000004e000100032003180800020808000d6
:10437000808f50000600360030808000800078007a
:1043800020808000008050000000e9000700370016
:104390003080800080007800208080000080500005
:1043a000800cb000010037000000eb000080fa0034
:1043b000000006000000fa002eff07000004e000e5
:1043c000100032001180800000808000808f50003b
:1043d0000600360010808000800078000080800099
:1043e000008050000000e9000700370010808000c6
:1043f000800078000080800000805000800cb000b9
:10440000010037000000eb000080fa000000060009
:104410000000fa0021e2a8002342a8000080fa0070
:10442000000006000000fa0021e2a9002342a900d2
:104430000080fa00000006000000fa00003a800048
:104440000080fa00000006000200fa00faff0700f0
:10445000000f78001e007800240007000004e00030
:104460000200320000002800710007001e007800e2
:104470002a0007000004e0000200320000002400cf
:104480006b0007001e007800320007000004e00007
:104490000200320000202000650007001e007800a6
:1044a0003a0007000004e00002003200000820008b
:1044b0005f0007001e007800420007000004e000d3
:1044c0000200320000042000590007001e0078009e
:1044d0004a0007000004e000020032000001200052
:1044e000530007000080fa00000006000400fa00f4
:1044f000100798000040eb00004f78001e0090006d
:104500000000e00002003d0010c0b300004f780042
:104510001e4078000080fa00000006000400fa0047
:10452000100798000040eb00004f78009e009000bc
:1045300000002400008060000000e0000200320063
:1045400010c0b300004f78001e4078000080fa00d1
:10455000000006000400fa00100798000040eb007d
:10456000004f78009e009000002020000080600036
:104570000000e0000200320010c0b300004f7800dd
:104580001e4078000080fa00000006000400fa00d7
:10459000100798000040eb00004f78009e0090004c
:1045a00000082000008060000000e00002003200ef
:1045b00010c0b300004f78001e4078000080fa0061
:1045c000000006000400fa00100798000040eb000d
:1045d000004f78009e0090000004200000806000e2
:1045e0000000e0000200320010c0b300004f78006d
:1045f0001e4078000080fa00000006000400fa0067
:10460000100798000040eb00004f78001e0090005b
:10461000700060000000e0000200320010c0b30033
:10462000004f78001e4078000080fa00000006006d
:104630000200fa00000f78009e80ea00003a800035
:1046400000806000003a88000080fa000000060048
:104650000000fa004027ef000080fa00000006008a
:020000040000fa
:104660001c12000020000000800000000e1000005e
:104670000200000082000000ffff00001010000098
:104680009201000080000000001000000e000000f9
:10469000800000003c1200001a00000082000000b0
:1046a000686a6c00747a4c0000000100000200008f
:1046b0000400080000100000000020002b2d230043
:1046c00030000000a211000058000000820000002d
:1046d0006e616e00004e41004e0069006e66000083
:1046e000494e460000000000000000000024400089
:1046f0000000000000000000594000000000000021
:104700000088c3004000000000008400d7974100eb
:104710000080e0003779c300414317006e05b50003
:10472000b5b8930046f5f9003fe903004f384d0056
:10473000321d3000f9487700825a3c00bf737f0079
:10474000dd4f150075000000561200000200000049
:104750008200000030000000fa110000220000007a
:1047600082000000303132003334350036373800f3
:1047700039414200434445004600300031323300a5
:10478000343536003738390061626300646566008d
:08479000000000000000000021
:020000040000fa
:104798000000fa00042eef00142eef00242eef0084
:1047a8007079200000708800f07f2f0080708800ea
:1047b800f03f2000007188000c2eef001c2eef0047
:1047c8002c2eef000a2eef001a2eef002a2eef00f3
:1047d800062eef00162eef00262eef007021200087
:1047e8007070880030382000f0708800f0032000d6
:1047f80070718800113a8000f00b20000081600081
:10480800600420007105200023742000804978008e
:1048180081497800824978002136800000f82f000d
:1048280080806000c00220000100700020368800ef
:1048380041348000f00f2c00008060000080a00050
:1048480040348800103a8000000178000260a0001f
:10485800600420007105200023742000804978003e
:1048680081497800824978000080fa00000006003b
:104878000000fa0000042300203a88004827ef00cf
:104888004e27ef00f0012000303a88006027ef0043
:104898006227ef006427ef006627ef006a27ef0022
:1048a8006c27ef001200200080072000a1092000db
:1048b8003374200080497800814978008249780063
:1048c80012002000600420007105200023742000dd
:1048d800804978008149780082497800000000000a
:1048e800103a8000610060000000e000fcff3a0020
:1048f80000000000113a80000002200000806000e3
:104908000000e000fbff32000080fa000000060013
:104918000200fa00000f780021028000200f20001a
:10492800008060001e007000200288000080fa00ed
:10493800000006000000fa00c3e8a800000000001c
:10494800000000000080fa00000006000000fa00e5
:104958008fff0700c6ff0700060007002afd0700b3
:10496800f4ff070000022000e9ff07000080fa00ba
:10497800000006000000fa0001438000f0f82f0054
:10498800008060000040a0000043880031428000a1
:1049980080ff2f00008060000000a00030428800e7
:1049a80021428000f0ff28000080600000c0a000c5
:1049b800204288000080fa00000006000000fa008b
:1049c800abff07000080fa00000006000000fa00b4
:1049d800003a80000080fa00000006000000fa009b
:1049e80097fe07000080fa00000006000000fa00a9
:1049f80015ff07000080fa0000000600000f78008d
:104a08009e00780071808800ffff37000000fa00e0
:104a1800c021210080077800402321000001880080
:084a28000080fa000000060006
:020000040000fa
:02000004000af0
:04afe000cfff00009f
:020000040000fa
:02000004000af0
:04afe400ffff00006b
:020000040000fa
:02000004000af0
:04afe8007fff0000e7
:020000040000fa
:02000004000af0
:04afec003bff000027
:020000040000fa
:02000004000af0
:04aff000f8ff000066
:020000040000fa
:02000004000af0
:04aff400ffff00005b
:00000001FF
